{
  "contractName": "IncomeAssignment",
  "abi": [
    {
      "constant": true,
      "inputs": [
        {
          "name": "",
          "type": "address"
        }
      ],
      "name": "currAssignment",
      "outputs": [
        {
          "name": "",
          "type": "uint256"
        }
      ],
      "payable": false,
      "stateMutability": "view",
      "type": "function"
    },
    {
      "constant": true,
      "inputs": [
        {
          "name": "",
          "type": "address"
        },
        {
          "name": "",
          "type": "uint256"
        }
      ],
      "name": "assignmentHistory",
      "outputs": [
        {
          "name": "seller",
          "type": "address"
        },
        {
          "name": "buyer",
          "type": "address"
        },
        {
          "name": "price",
          "type": "uint256"
        },
        {
          "name": "numTransferred",
          "type": "uint256"
        },
        {
          "name": "confirmed",
          "type": "bool"
        }
      ],
      "payable": false,
      "stateMutability": "view",
      "type": "function"
    },
    {
      "inputs": [],
      "payable": false,
      "stateMutability": "nonpayable",
      "type": "constructor"
    },
    {
      "payable": true,
      "stateMutability": "payable",
      "type": "fallback"
    },
    {
      "anonymous": false,
      "inputs": [
        {
          "indexed": false,
          "name": "_contract",
          "type": "address"
        },
        {
          "indexed": false,
          "name": "seller",
          "type": "address"
        },
        {
          "indexed": false,
          "name": "buyer",
          "type": "address"
        },
        {
          "indexed": false,
          "name": "priceInEth",
          "type": "uint256"
        },
        {
          "indexed": false,
          "name": "numTransferred",
          "type": "uint256"
        }
      ],
      "name": "AssignmentExecuted",
      "type": "event"
    },
    {
      "constant": false,
      "inputs": [
        {
          "name": "_contract",
          "type": "address"
        },
        {
          "name": "_seller",
          "type": "address"
        },
        {
          "name": "_buyer",
          "type": "address"
        },
        {
          "name": "_price",
          "type": "uint256"
        },
        {
          "name": "_numTransferred",
          "type": "uint256"
        }
      ],
      "name": "recordAssignment",
      "outputs": [],
      "payable": false,
      "stateMutability": "nonpayable",
      "type": "function"
    },
    {
      "constant": false,
      "inputs": [
        {
          "name": "_contract",
          "type": "address"
        },
        {
          "name": "_assignmentNum",
          "type": "uint256"
        }
      ],
      "name": "executeAssignment",
      "outputs": [],
      "payable": false,
      "stateMutability": "nonpayable",
      "type": "function"
    },
    {
      "constant": true,
      "inputs": [
        {
          "name": "_contract",
          "type": "address"
        }
      ],
      "name": "getNumAssignments",
      "outputs": [
        {
          "name": "",
          "type": "uint256"
        }
      ],
      "payable": false,
      "stateMutability": "view",
      "type": "function"
    },
    {
      "constant": true,
      "inputs": [
        {
          "name": "_contract",
          "type": "address"
        }
      ],
      "name": "getAssignmentNoByAddress",
      "outputs": [
        {
          "name": "",
          "type": "uint256[]"
        }
      ],
      "payable": false,
      "stateMutability": "view",
      "type": "function"
    },
    {
      "constant": true,
      "inputs": [
        {
          "name": "_contract",
          "type": "address"
        },
        {
          "name": "_assignmentNum",
          "type": "uint256"
        }
      ],
      "name": "getAssignment",
      "outputs": [
        {
          "name": "seller",
          "type": "address"
        },
        {
          "name": "buyer",
          "type": "address"
        },
        {
          "name": "price",
          "type": "uint256"
        },
        {
          "name": "numTransferred",
          "type": "uint256"
        },
        {
          "name": "confirmed",
          "type": "bool"
        }
      ],
      "payable": false,
      "stateMutability": "view",
      "type": "function"
    }
  ],
  "bytecode": "0x608060405234801561001057600080fd5b50610adc806100206000396000f3fe6080604052600436106100825763ffffffff7c01000000000000000000000000000000000000000000000000000000006000350416637eafd4cd811461008457806391c2dae8146100d3578063ad7f761c14610145578063b1c2f36e1461018a578063cc69c2e61461020d578063e4b29c9014610246578063ea6556b814610279575b005b34801561009057600080fd5b50610082600480360360a08110156100a757600080fd5b50600160a060020a038135811691602081013582169160408201351690606081013590608001356102b2565b3480156100df57600080fd5b5061010c600480360360408110156100f657600080fd5b50600160a060020a03813516906020013561048f565b60408051600160a060020a0396871681529490951660208501528385019290925260608301521515608082015290519081900360a00190f35b34801561015157600080fd5b506101786004803603602081101561016857600080fd5b5035600160a060020a031661051a565b60408051918252519081900360200190f35b34801561019657600080fd5b506101bd600480360360208110156101ad57600080fd5b5035600160a060020a031661052c565b60408051602080825283518183015283519192839290830191858101910280838360005b838110156101f95781810151838201526020016101e1565b505050509050019250505060405180910390f35b34801561021957600080fd5b506100826004803603604081101561023057600080fd5b50600160a060020a03813516906020013561066b565b34801561025257600080fd5b506101786004803603602081101561026957600080fd5b5035600160a060020a0316610a20565b34801561028557600080fd5b5061010c6004803603604081101561029c57600080fd5b50600160a060020a038135169060200135610a3b565b6102ba610a82565b60a06040519081016040528086600160a060020a0316815260200185600160a060020a0316815260200184815260200183815260200160001515815250905060006002600088600160a060020a0316600160a060020a031681526020019081526020016000206000815480929190600101919050559050816001600089600160a060020a0316600160a060020a03168152602001908152602001600020600083815260200190815260200160002060008201518160000160006101000a815481600160a060020a030219169083600160a060020a0316021790555060208201518160010160006101000a815481600160a060020a030219169083600160a060020a03160217905550604082015181600201556060820151816003015560808201518160040160006101000a81548160ff0219169083151502179055509050507fcb7daf2e21b09d01ff770b30bb1aaafac3da47125bbb7e263b2638484452ca6987878787876040518086600160a060020a0316600160a060020a0316815260200185600160a060020a0316600160a060020a0316815260200184600160a060020a0316600160a060020a031681526020018381526020018281526020019550505050505060405180910390a150505050505050565b600080600080600061049f610a82565b50505050600160a060020a03938416600090815260016020818152604080842096845295815291859020855160a0810187528154881680825292820154909716928701839052600281015495870186905260038101546060880181905260049091015460ff1615156080909701879052909691959093509150565b60026020526000908152604090205481565b606060006002600084600160a060020a0316600160a060020a03168152602001908152602001600020549050606081604051908082528060200260200182016040528015610584578160200160208202803883390190505b50905060005b828110156106635761059a610a82565b50600160a060020a038086166000908152600160208181526040808420868552825292839020835160a0810185528154861680825293820154909516918501919091526002810154928401929092526003820154606084015260049091015460ff161515608083015233148061061c57506020810151600160a060020a031633145b1561063f5781838381518110151561063057fe5b6020908102909101015261065a565b6000838381518110151561064f57fe5b602090810290910101525b5060010161058a565b509392505050565b604080517f70a0823100000000000000000000000000000000000000000000000000000000815233600482015290518391600091600160a060020a038416916370a08231916024808301926020929190829003018186803b1580156106cf57600080fd5b505afa1580156106e3573d6000803e3d6000fd5b505050506040513d60208110156106f957600080fd5b50519050610705610a82565b50600160a060020a038085166000908152600160208181526040808420888552825292839020835160a0810185528154861680825293820154909516918501919091526002810154928401929092526003820154606084015260049091015460ff161515608083015233146107db57604080517f08c379a000000000000000000000000000000000000000000000000000000000815260206004820152601760248201527f6f6e6c792073656c6c65722063616e20636f6e6669726d000000000000000000604482015290519081900360640190fd5b606081015182101561087457604080517f08c379a000000000000000000000000000000000000000000000000000000000815260206004820152602c60248201527f73656c6c657220646f6573206e6f74206861766520656e6f75676820746f6b6560448201527f6e7320746f2061737369676e0000000000000000000000000000000000000000606482015290519081900360840190fd5b80516020808301516060840151604080517f23b872dd000000000000000000000000000000000000000000000000000000008152600160a060020a0395861660048201529285166024840152604483019190915251928616926323b872dd926064808401939192918290030181600087803b1580156108f257600080fd5b505af1158015610906573d6000803e3d6000fd5b505050506040513d602081101561091c57600080fd5b5051151561098b57604080517f08c379a000000000000000000000000000000000000000000000000000000000815260206004820152601560248201527f7472616e7366657220756e7375636365737366756c0000000000000000000000604482015290519081900360640190fd5b600160808201818152600160a060020a03968716600090815260208381526040808320988352978152908790208451815473ffffffffffffffffffffffffffffffffffffffff19908116918b1691909117825591850151938101805490921693909816929092179091559381015160028601556060015160038501555050516004909101805460ff1916911515919091179055565b600160a060020a031660009081526002602052604090205490565b6001602081815260009384526040808520909152918352912080549181015460028201546003830154600490930154600160a060020a039485169490921692909160ff1685565b6040805160a0810182526000808252602082018190529181018290526060810182905260808101919091529056fea165627a7a723058202ad1ce1b2db8fee6fdf57f90993cbc995734fc520762153ef4cfeae7bccfe1b40029",
  "source": "pragma solidity ^0.5.0;\n\n/**\n * @title IncomeAssignment\n * @notice IncomeAssignment controls the assignment of income share tokens\n **/\ncontract IncomeAssignment {\n\n  // @notice Assignment defines the details of an assignment\n  struct Assignment {\n    address seller;\n    address buyer;\n    uint price;\n    uint numTransferred;\n    bool confirmed;\n  }\n\n  // @notice Event emitting Assignment details upon execution \n  event AssignmentExecuted (\n    address _contract,\n    address seller,\n    address buyer,\n    uint priceInEth,\n    uint numTransferred\n  );\n\n  // Would be nice to have OL address passed into constructor for modifier use\n  address openLaw;\n\n  // @notice ERC20 address -> Assignment number -> Assignment\n  mapping (address => mapping(uint => Assignment)) public assignmentHistory;\n\n  // @notice ERC20 address -> Assignment index (defaults to 0)\n  mapping (address => uint) public currAssignment; \n\n  constructor() public {\n  }\n\n   /**\n   * @notice recordAssignment creates a new assignment \n   * @param _contract - the address of the tokenized ERC20 income shares \n   * @param _seller - address assigning tokens\n   * @param _buyer - address receiving tokens\n   * @param _price - price the buyer pays in Wei\n   * @param _numTransferred - number of transferred shares\n   */\n  function recordAssignment(\n    address _contract, \n    address _seller, \n    address _buyer, \n    uint _price, \n    uint _numTransferred) public {\n    Assignment memory _assignment = Assignment({\n      seller: _seller,\n      buyer: _buyer,\n      price: _price,\n      numTransferred: _numTransferred,\n      confirmed: false\n    });\n\n    uint _assignmentNo = currAssignment[_contract]++;\n    \n    assignmentHistory[_contract][_assignmentNo] = _assignment;\n\n    emit AssignmentExecuted(_contract, _seller, _buyer, _price, _numTransferred);\n  }\n\n  function () external payable { }\n\n/**\n   * @notice executeAssignment is called by an seller to effect token transfer after receiving payment \n   * @param _contract - the address of the tokenized ERC20 income shares \n   * @param _assignmentNum - the particular Assignment's index for retrieval \n   */\n  function executeAssignment(address _contract, uint _assignmentNum) public {\n\n    ProofClaim pcToken = ProofClaim(_contract);\n\n    uint sellerTokens = pcToken.balanceOf(msg.sender);\n    \n    Assignment memory _assignment = assignmentHistory[_contract][_assignmentNum];\n\n    require (msg.sender == _assignment.seller, \"only seller can confirm\");\n    require (sellerTokens >= _assignment.numTransferred, \"seller does not have enough tokens to assign\");\n\n    // transfer pre-approved token balance from seller to buyer by calling Token smart contract\n    require(pcToken.transferFrom(_assignment.seller, _assignment.buyer, _assignment.numTransferred), \"transfer unsuccessful\");\n\n    _assignment.confirmed = true;\n\n    // update the Assignment w/ confirmed = true\n    assignmentHistory[_contract][_assignmentNum] = _assignment; \n  }\n\n/**\n   * @notice getNumAssignments returns the number of assignments made for a token  \n   * @param _contract - the address of the tokenized ERC20 income shares \n   */\n  function getNumAssignments(address _contract) public view returns (uint) {\n    return currAssignment[_contract];\n  }\n\n  function getAssignmentNoByAddress(address _contract) public view returns (uint[] memory){\n    uint numAssignments = currAssignment[_contract];\n    uint[] memory assignmentNos = new uint[](numAssignments);\n\n    for(uint i = 0; i < numAssignments; i++) {\n      Assignment memory assignment = assignmentHistory[_contract][i];\n      if(assignment.seller == msg.sender || assignment.buyer == msg.sender) {\n        assignmentNos[i] = i;\n      } else {\n        assignmentNos[i] = 0;\n      }\n    }\n  return assignmentNos;\n  }\n\n/**\n   * @notice getAssignment returns the details of an Assignment \n   * @param _contract - the address of the tokenized ERC20 income shares \n   * @param _assignmentNum - the particular Assignment's index for retrieval \n   */\n  function getAssignment(address _contract, uint _assignmentNum) public view returns (  \n    address seller,\n    address buyer,\n    uint price,\n    uint numTransferred,\n    bool confirmed) {\n    \n    Assignment memory _assignment = assignmentHistory[_contract][_assignmentNum];\n    seller = _assignment.seller;\n    buyer = _assignment.buyer;\n    price = _assignment.price;\n    numTransferred = _assignment.numTransferred;\n    confirmed = _assignment.confirmed;\n  }    \n}\n\n/**\n * @title ProofClaim\n * @notice Interface of ProofClaim ERC20 token to call its functions \n **/\ncontract ProofClaim {\n  \n  function totalSupply() public view returns (uint);\n  function balanceOf(address tokenOwner) public view returns (uint balance);\n  function allowance(address tokenOwner, address spender) public view returns (uint remaining);\n  function transfer(address to, uint tokens) public returns (bool success);\n  function approve(address spender, uint tokens) public returns (bool success);\n  function transferFrom(address from, address to, uint tokens) public returns (bool success);\n\n  event Transfer(address indexed from, address indexed to, uint tokens);\n  event Approval(address indexed tokenOwner, address indexed spender, uint tokens);\n}",
  "sourcePath": "/home/josh/dev/income-share/contracts/IncomeAssignment.sol",
  "compiler": {
    "name": "solc",
    "version": "0.5.0+commit.1d4f565a.Emscripten.clang"
  },
  "schemaVersion": "3.0.9",
  "updatedAt": "2019-05-31T16:50:17.040Z",
  "devdoc": {
    "methods": {
      "executeAssignment(address,uint256)": {
        "params": {
          "_assignmentNum": "- the particular Assignment's index for retrieval ",
          "_contract": "- the address of the tokenized ERC20 income shares "
        }
      },
      "getAssignment(address,uint256)": {
        "params": {
          "_assignmentNum": "- the particular Assignment's index for retrieval ",
          "_contract": "- the address of the tokenized ERC20 income shares "
        }
      },
      "getNumAssignments(address)": {
        "params": {
          "_contract": "- the address of the tokenized ERC20 income shares "
        }
      },
      "recordAssignment(address,address,address,uint256,uint256)": {
        "params": {
          "_buyer": "- address receiving tokens",
          "_contract": "- the address of the tokenized ERC20 income shares ",
          "_numTransferred": "- number of transferred shares",
          "_price": "- price the buyer pays in Wei",
          "_seller": "- address assigning tokens"
        }
      }
    },
    "title": "IncomeAssignment"
  },
  "userdoc": {
    "methods": {
      "executeAssignment(address,uint256)": {
        "notice": "executeAssignment is called by an seller to effect token transfer after receiving payment "
      },
      "getAssignment(address,uint256)": {
        "notice": "getAssignment returns the details of an Assignment "
      },
      "getNumAssignments(address)": {
        "notice": "getNumAssignments returns the number of assignments made for a token  "
      },
      "recordAssignment(address,address,address,uint256,uint256)": {
        "notice": "recordAssignment creates a new assignment "
      }
    },
    "notice": "IncomeAssignment controls the assignment of income share tokens*"
  }
}