{
  "contractName": "MasterPOC",
  "abi": [
    {
      "constant": true,
      "inputs": [],
      "name": "lastContractAddress",
      "outputs": [
        {
          "name": "",
          "type": "address"
        }
      ],
      "payable": false,
      "stateMutability": "view",
      "type": "function"
    },
    {
      "constant": true,
      "inputs": [
        {
          "name": "",
          "type": "uint256"
        }
      ],
      "name": "contracts",
      "outputs": [
        {
          "name": "",
          "type": "address"
        }
      ],
      "payable": false,
      "stateMutability": "view",
      "type": "function"
    },
    {
      "inputs": [],
      "payable": false,
      "stateMutability": "nonpayable",
      "type": "constructor"
    },
    {
      "anonymous": false,
      "inputs": [
        {
          "indexed": false,
          "name": "contractAddress",
          "type": "address"
        }
      ],
      "name": "newProofClaimContract",
      "type": "event"
    },
    {
      "constant": true,
      "inputs": [],
      "name": "getContractCount",
      "outputs": [
        {
          "name": "contractCount",
          "type": "uint256"
        }
      ],
      "payable": false,
      "stateMutability": "view",
      "type": "function"
    },
    {
      "constant": false,
      "inputs": [
        {
          "name": "symbol",
          "type": "string"
        },
        {
          "name": "name",
          "type": "string"
        },
        {
          "name": "owner",
          "type": "address"
        }
      ],
      "name": "newProofClaim",
      "outputs": [
        {
          "name": "",
          "type": "bool"
        }
      ],
      "payable": false,
      "stateMutability": "nonpayable",
      "type": "function"
    },
    {
      "constant": true,
      "inputs": [
        {
          "name": "pos",
          "type": "uint256"
        }
      ],
      "name": "seeProofClaim",
      "outputs": [
        {
          "name": "contractAddress",
          "type": "address"
        }
      ],
      "payable": false,
      "stateMutability": "view",
      "type": "function"
    }
  ],
  "bytecode": "0x608060405234801561001057600080fd5b50611836806100206000396000f3fe608060405234801561001057600080fd5b50600436106100575760003560e01c8063327097381461005c578063474da79a146100805780639399869d1461009d5780639c4006fd146100b7578063d413fdf314610203575b600080fd5b610064610220565b604080516001600160a01b039092168252519081900360200190f35b6100646004803603602081101561009657600080fd5b503561022f565b6100a5610256565b60408051918252519081900360200190f35b6101ef600480360360608110156100cd57600080fd5b8101906020810181356401000000008111156100e857600080fd5b8201836020820111156100fa57600080fd5b8035906020019184600183028401116401000000008311171561011c57600080fd5b91908080601f016020809104026020016040519081016040528093929190818152602001838380828437600092019190915250929594936020810193503591505064010000000081111561016f57600080fd5b82018360208201111561018157600080fd5b803590602001918460018302840111640100000000831117156101a357600080fd5b91908080601f016020809104026020016040519081016040528093929190818152602001838380828437600092019190915250929550505090356001600160a01b0316915061025c9050565b604080519115158252519081900360200190f35b6100646004803603602081101561021957600080fd5b5035610418565b6001546001600160a01b031681565b6000818154811061023c57fe5b6000918252602090912001546001600160a01b0316905081565b60005490565b60008068056bc75e2d63100000905060008585858460405161027d90610441565b6001600160a01b03831660408201526060810182905260808082528551908201528451819060208083019160a084019189019080838360005b838110156102ce5781810151838201526020016102b6565b50505050905090810190601f1680156102fb5780820380516001836020036101000a031916815260200191505b50838103825286518152865160209182019188019080838360005b8381101561032e578181015183820152602001610316565b50505050905090810190601f16801561035b5780820380516001836020036101000a031916815260200191505b509650505050505050604051809103906000f080158015610380573d6000803e3d6000fd5b5060008054600181810183559180527f290decd9548b62a8d60345a988386fc84ba6bc95484008f6362f93160ef3e5630180546001600160a01b0384166001600160a01b03199182168117909255825416811790915560408051918252519192507f5ac718467c8c5cd4a3b839f07f301a62ea058e5fa9c1e524b95f3cd9884d1c17919081900360200190a150600195945050505050565b600080828154811061042657fe5b6000918252602090912001546001600160a01b031692915050565b6113bc8061044f8339019056fe60806040523480156200001157600080fd5b50604051620013bc380380620013bc833981018060405260808110156200003757600080fd5b8101908080516401000000008111156200005057600080fd5b820160208101848111156200006457600080fd5b81516401000000008111828201871017156200007f57600080fd5b505092919060200180516401000000008111156200009c57600080fd5b82016020810184811115620000b057600080fd5b8151640100000000811182820187101715620000cb57600080fd5b5050602080830151604090930151600080546001600160a01b031916331790558651929550929350620001049160029187019062000187565b5082516200011a90600390602086019062000187565b506004805460ff1916601217905560058190556001600160a01b0382166000818152600860209081526040808320859055805185815290517fddf252ad1be2c89b69c2b068fc378daa952ba7f163c4a11628f55a4df523b3ef929181900390910190a3505050506200022c565b828054600181600116156101000203166002900490600052602060002090601f016020900481019282601f10620001ca57805160ff1916838001178555620001fa565b82800160010185558215620001fa579182015b82811115620001fa578251825591602001919060010190620001dd565b50620002089291506200020c565b5090565b6200022991905b8082111562000208576000815560010162000213565b90565b611180806200023c6000396000f3fe60806040526004361061019c5760003560e01c806391f30bd4116100ec578063cae9ca511161008a578063dc39d06d11610064578063dc39d06d1461073c578063dd62ed3e14610775578063e6cb9013146107b0578063f2fde38b146107e05761019c565b8063cae9ca511461062f578063d05c78da146106f7578063d4ee1d90146107275761019c565b8063a9059cbb116100c6578063a9059cbb146104f7578063ab61f2b914610530578063b5931f7c146105ea578063c623674f1461061a5761019c565b806391f30bd41461049d57806395d89b41146104b2578063a293d1e8146104c75761019c565b80633eaaf86b1161015957806370a082311161013357806370a082311461040f57806379ba5097146104425780638c9b48c1146104575780638da5cb5b1461046c5761019c565b80633eaaf86b1461032257806344d13bb7146103375780634e3bfc9d1461036a5761019c565b806306fdde03146101a1578063095ea7b31461022b57806318160ddd1461027857806320b28ade1461029f57806323b872dd146102b4578063313ce567146102f7575b600080fd5b3480156101ad57600080fd5b506101b6610813565b6040805160208082528351818301528351919283929083019185019080838360005b838110156101f05781810151838201526020016101d8565b50505050905090810190601f16801561021d5780820380516001836020036101000a031916815260200191505b509250505060405180910390f35b34801561023757600080fd5b506102646004803603604081101561024e57600080fd5b506001600160a01b0381351690602001356108a1565b604080519115158252519081900360200190f35b34801561028457600080fd5b5061028d610908565b60408051918252519081900360200190f35b3480156102ab57600080fd5b5061028d61093b565b3480156102c057600080fd5b50610264600480360360608110156102d757600080fd5b506001600160a01b03813581169160208101359091169060400135610941565b34801561030357600080fd5b5061030c610a3a565b6040805160ff9092168252519081900360200190f35b34801561032e57600080fd5b5061028d610a43565b34801561034357600080fd5b5061028d6004803603602081101561035a57600080fd5b50356001600160a01b0316610a49565b61040d6004803603602081101561038057600080fd5b81019060208101813564010000000081111561039b57600080fd5b8201836020820111156103ad57600080fd5b803590602001918460208302840111640100000000831117156103cf57600080fd5b919080806020026020016040519081016040528093929190818152602001838360200280828437600092019190915250929550610a64945050505050565b005b34801561041b57600080fd5b5061028d6004803603602081101561043257600080fd5b50356001600160a01b0316610b3f565b34801561044e57600080fd5b5061040d610b5a565b34801561046357600080fd5b506101b6610bd5565b34801561047857600080fd5b50610481610c6b565b604080516001600160a01b039092168252519081900360200190f35b3480156104a957600080fd5b506101b6610c7a565b3480156104be57600080fd5b506101b6610cd5565b3480156104d357600080fd5b5061028d600480360360408110156104ea57600080fd5b5080359060200135610d2d565b34801561050357600080fd5b506102646004803603604081101561051a57600080fd5b506001600160a01b038135169060200135610d42565b34801561053c57600080fd5b5061040d6004803603604081101561055357600080fd5b8135919081019060408101602082013564010000000081111561057557600080fd5b82018360208201111561058757600080fd5b803590602001918460018302840111640100000000831117156105a957600080fd5b91908080601f016020809104026020016040519081016040528093929190818152602001838380828437600092019190915250929550610de6945050505050565b3480156105f657600080fd5b5061028d6004803603604081101561060d57600080fd5b5080359060200135610e03565b34801561062657600080fd5b5061028d610e22565b34801561063b57600080fd5b506102646004803603606081101561065257600080fd5b6001600160a01b038235169160208101359181019060608101604082013564010000000081111561068257600080fd5b82018360208201111561069457600080fd5b803590602001918460018302840111640100000000831117156106b657600080fd5b91908080601f016020809104026020016040519081016040528093929190818152602001838380828437600092019190915250929550610e28945050505050565b34801561070357600080fd5b5061028d6004803603604081101561071a57600080fd5b5080359060200135610f73565b34801561073357600080fd5b50610481610f94565b34801561074857600080fd5b506102646004803603604081101561075f57600080fd5b506001600160a01b038135169060200135610fa3565b34801561078157600080fd5b5061028d6004803603604081101561079857600080fd5b506001600160a01b0381358116916020013516611048565b3480156107bc57600080fd5b5061028d600480360360408110156107d357600080fd5b5080359060200135611073565b3480156107ec57600080fd5b5061040d6004803603602081101561080357600080fd5b50356001600160a01b0316611083565b6003805460408051602060026001851615610100026000190190941693909304601f810184900484028201840190925281815292918301828280156108995780601f1061086e57610100808354040283529160200191610899565b820191906000526020600020905b81548152906001019060200180831161087c57829003601f168201915b505050505081565b3360008181526009602090815260408083206001600160a01b038716808552908352818420869055815186815291519394909390927f8c5be1e5ebec7d5bd14f71427d1e84f3dd0314c0f7b2291e5b200ac8c7c3b925928290030190a35060015b92915050565b6000805260086020527f5eff886ea0ce6ca488a3d6e336d6c0f75f46d19b42c06ce5ee98e42c96d256c754600554035b90565b60065490565b6001600160a01b0383166000908152600860205260408120546109649083610d2d565b6001600160a01b038516600090815260086020908152604080832093909355600981528282203383529052205461099b9083610d2d565b6001600160a01b0380861660009081526009602090815260408083203384528252808320949094559186168152600890915220546109d99083611073565b6001600160a01b0380851660008181526008602090815260409182902094909455805186815290519193928816927fddf252ad1be2c89b69c2b068fc378daa952ba7f163c4a11628f55a4df523b3ef92918290030190a35060019392505050565b60045460ff1681565b60055481565b6001600160a01b03166000908152600a602052604090205490565b60005b8151811015610b3b576000828281518110610a7e57fe5b60200260200101519050600060086000858581518110610a9a57fe5b60200260200101516001600160a01b03166001600160a01b03168152602001908152602001600020549050600060055482340281610ad457fe5b049050826001600160a01b03166108fc829081150290604051600060405180830381858888f19350505050158015610b10573d6000803e3d6000fd5b506001600160a01b039092166000908152600a60205260409020805490920190915550600101610a67565b5050565b6001600160a01b031660009081526008602052604090205490565b6001546001600160a01b03163314610b7157600080fd5b600154600080546040516001600160a01b0393841693909116917f8be0079c531659141344cd1fd0a4f28419497f9722a3daafe3b4186f6b6457e091a360018054600080546001600160a01b03199081166001600160a01b03841617909155169055565b60078054604080516020601f6002600019610100600188161502019095169490940493840181900481028201810190925282815260609390929091830182828015610c615780601f10610c3657610100808354040283529160200191610c61565b820191906000526020600020905b815481529060010190602001808311610c4457829003601f168201915b5050505050905090565b6000546001600160a01b031681565b6007805460408051602060026001851615610100026000190190941693909304601f810184900484028201840190925281815292918301828280156108995780601f1061086e57610100808354040283529160200191610899565b6002805460408051602060018416156101000260001901909316849004601f810184900484028201840190925281815292918301828280156108995780601f1061086e57610100808354040283529160200191610899565b600082821115610d3c57600080fd5b50900390565b33600090815260086020526040812054610d5c9083610d2d565b33600090815260086020526040808220929092556001600160a01b03851681522054610d889083611073565b6001600160a01b0384166000818152600860209081526040918290209390935580518581529051919233927fddf252ad1be2c89b69c2b068fc378daa952ba7f163c4a11628f55a4df523b3ef9281900390910190a350600192915050565b60068290558051610dfe9060079060208401906110bc565b505050565b6000808211610e1157600080fd5b818381610e1a57fe5b049392505050565b60065481565b3360008181526009602090815260408083206001600160a01b038816808552908352818420879055815187815291519394909390927f8c5be1e5ebec7d5bd14f71427d1e84f3dd0314c0f7b2291e5b200ac8c7c3b925928290030190a3604051600160e01b638f4ffcb102815233600482018181526024830186905230604484018190526080606485019081528651608486015286516001600160a01b038a1695638f4ffcb195948a94938a939192909160a490910190602085019080838360005b83811015610f02578181015183820152602001610eea565b50505050905090810190601f168015610f2f5780820380516001836020036101000a031916815260200191505b5095505050505050600060405180830381600087803b158015610f5157600080fd5b505af1158015610f65573d6000803e3d6000fd5b506001979650505050505050565b818102821580610f8b575081838281610f8857fe5b04145b61090257600080fd5b6001546001600160a01b031681565b600080546001600160a01b03163314610fbb57600080fd5b6000805460408051600160e01b63a9059cbb0281526001600160a01b0392831660048201526024810186905290519186169263a9059cbb926044808401936020939083900390910190829087803b15801561101557600080fd5b505af1158015611029573d6000803e3d6000fd5b505050506040513d602081101561103f57600080fd5b50519392505050565b6001600160a01b03918216600090815260096020908152604080832093909416825291909152205490565b8181018281101561090257600080fd5b6000546001600160a01b0316331461109a57600080fd5b600180546001600160a01b0319166001600160a01b0392909216919091179055565b828054600181600116156101000203166002900490600052602060002090601f016020900481019282601f106110fd57805160ff191683800117855561112a565b8280016001018555821561112a579182015b8281111561112a57825182559160200191906001019061110f565b5061113692915061113a565b5090565b61093891905b80821115611136576000815560010161114056fea165627a7a7230582066b8783851599443d01eaef826af0af4ba7598b9c94853c87f6231031ebf22b10029a165627a7a7230582090988bac28d3c424437d365c9b102ffdb47cfa77dfd6bad8b1c84b3d9d9ef53e0029",
  "source": "pragma solidity ^0.5.0;\n\ncontract MasterPOC {\n\n  address[] public contracts;\n  address public lastContractAddress;\n  \n  event newProofClaimContract (\n      address contractAddress\n  );\n\n  constructor()\n      public\n  {\n  }\n\n  function getContractCount()\n      public\n      view\n      returns(uint contractCount)\n  {\n    return contracts.length;\n  }\n\n  function newProofClaim(string memory symbol, string memory name, address owner)\n      public\n      returns(bool)\n  {\n    uint supply = 100*1e18;\n    ProofClaim c = new ProofClaim(symbol, name, owner, supply);\n    contracts.push(address(c));\n    lastContractAddress = address(c);\n\n    emit newProofClaimContract(address(c));\n    return true;\n  }\n\n  function seeProofClaim(uint pos)\n      public\n      view\n      returns(address contractAddress)\n  {\n    return address(contracts[pos]);\n  }\n}\n\ncontract SafeMath {\nfunction safeAdd(uint a, uint b) public pure returns (uint c) {\n    c = a + b;\n    require(c >= a);\n}\nfunction safeSub(uint a, uint b) public pure returns (uint c) {\n    require(b <= a);\n    c = a - b;\n}\nfunction safeMul(uint a, uint b) public pure returns (uint c) {\n    c = a * b;\n    require(a == 0 || c / a == b);\n}\nfunction safeDiv(uint a, uint b) public pure returns (uint c) {\n    require(b > 0);\n    c = a / b;\n}\n}\n\ncontract ERC20Interface {\n\tfunction totalSupply() public view returns (uint);\n\tfunction balanceOf(address tokenOwner) public view returns (uint balance);\n\tfunction allowance(address tokenOwner, address spender) public view returns (uint remaining);\n\tfunction transfer(address to, uint tokens) public returns (bool success);\n\tfunction approve(address spender, uint tokens) public returns (bool success);\n\tfunction transferFrom(address from, address to, uint tokens) public returns (bool success);\n\n\tevent Transfer(address indexed from, address indexed to, uint tokens);\n\tevent Approval(address indexed tokenOwner, address indexed spender, uint tokens);\n}\n\ncontract ApproveAndCallFallBack {\n\tfunction receiveApproval(address from, uint256 tokens, address token, bytes memory data) public;\n}\n\ncontract Owned {\n\taddress public owner;\n\taddress public newOwner;\n\n\tevent OwnershipTransferred(address indexed _from, address indexed _to);\n\n\tconstructor() public {\n    \towner = msg.sender;\n\t}\n\n\tmodifier onlyOwner {\n    \trequire(msg.sender == owner);\n    \t_;\n\t}\n\n\tfunction transferOwnership(address _newOwner) public onlyOwner {\n    \tnewOwner = _newOwner;\n\t}\n\tfunction acceptOwnership() public {\n    \trequire(msg.sender == newOwner);\n    \temit OwnershipTransferred(owner, newOwner);\n    \towner = newOwner;\n    \tnewOwner = address(0);\n\t}\n}\n\ncontract ProofClaim is ERC20Interface, Owned, SafeMath {\n\tstring public symbol;\n\tstring public  name;\n\tuint8 public decimals;\n\tuint public _totalSupply;\n\tbytes32 public ipfsHash;\n\tstring public contractID;\n\n\tmapping(address => uint) balances;\n\tmapping(address => mapping(address => uint)) allowed;\n\tmapping(address => uint) amountPaid;\n    \nconstructor(string memory _symbol, string memory _name, address _owner, uint _supply) public {\n    \tsymbol = _symbol;\n    \tname = _name;\n    \tdecimals = 18;\n    \t_totalSupply = _supply;\n    \tbalances[_owner] = _totalSupply;\n    \temit Transfer(address(0), _owner, _totalSupply);\n}\n\nfunction totalSupply() public view returns (uint) {\n    \treturn _totalSupply  - balances[address(0)];\n}\n\nfunction balanceOf(address tokenOwner) public view returns (uint balance) {\n    \treturn balances[tokenOwner];\n}\n\nfunction transfer(address to, uint tokens) public returns (bool success) {\n    \tbalances[msg.sender] = safeSub(balances[msg.sender], tokens);\n    \tbalances[to] = safeAdd(balances[to], tokens);\n    \temit Transfer(msg.sender, to, tokens);\n    \treturn true;\n}\n\nfunction approve(address spender, uint tokens) public returns (bool success) {\n    \tallowed[msg.sender][spender] = tokens;\n    \temit Approval(msg.sender, spender, tokens);\n    \treturn true;\n}\n\nfunction transferFrom(address from, address to, uint tokens) public returns (bool success) {\n    \tbalances[from] = safeSub(balances[from], tokens);\n    \tallowed[from][msg.sender] = safeSub(allowed[from][msg.sender], tokens);\n    \tbalances[to] = safeAdd(balances[to], tokens);\n    \temit Transfer(from, to, tokens);\n    \treturn true;\n}\n\nfunction allowance(address tokenOwner, address spender) public view returns (uint remaining) {\n    \treturn allowed[tokenOwner][spender];\n}\n\nfunction approveAndCall(address spender, uint tokens, bytes memory data) public returns (bool success) {\n    \tallowed[msg.sender][spender] = tokens;\n    \temit Approval(msg.sender, spender, tokens);\n    \tApproveAndCallFallBack(spender).receiveApproval(msg.sender, tokens, address(this), data);\n    \treturn true;\n}\n\nfunction () external payable {\n    \trevert();\n}\n\nfunction transferAnyERC20Token(address tokenAddress, uint tokens) public onlyOwner returns (bool success) {\n    \treturn ERC20Interface(tokenAddress).transfer(owner, tokens);\n\t}\n\nfunction disbursePayment(address[] memory _addresses) public payable {\n\t\tfor (uint i = 0; i < _addresses.length; i++) {\n\t\t\taddress payable _addr = address(uint160(_addresses[i]));\n\t\t\tuint balance = balances[_addresses[i]];\n\t\t\tuint paymentAmount = msg.value*balance/_totalSupply;\n\t\t\t_addr.transfer(paymentAmount);\n\t\t\tamountPaid[_addr] = amountPaid[_addr] + paymentAmount;\n\t\t}\n\t}\t\n\nfunction setIPFSHashAndContract(bytes32 _ipfsHash, string memory _contractID) public {\n\t\tipfsHash = _ipfsHash;\n\t\tcontractID = _contractID;\n}\t\n\nfunction getIPFSHash() public view returns (bytes32) {\n\t\treturn ipfsHash;\n}\n\nfunction getContractID() public view returns (string memory) {\n\t\treturn contractID;\n}\n\nfunction getAmountPaid(address _address) public view returns (uint) { \n\t\treturn amountPaid[_address]; \n\t}\n}",
  "sourcePath": "/home/josh/dev/income-share/contracts/MasterPOC.sol",
  "compiler": {
    "name": "solc",
    "version": "0.5.8+commit.23d335f2.Emscripten.clang"
  },
  "schemaVersion": "3.0.11",
  "updatedAt": "2019-08-09T20:28:17.856Z",
  "devdoc": {
    "methods": {}
  },
  "userdoc": {
    "methods": {}
  }
}