{
  "contractName": "MasterPOC",
  "abi": [
    {
      "constant": true,
      "inputs": [],
      "name": "lastContractAddress",
      "outputs": [
        {
          "name": "",
          "type": "address"
        }
      ],
      "payable": false,
      "stateMutability": "view",
      "type": "function",
      "signature": "0x32709738"
    },
    {
      "constant": true,
      "inputs": [
        {
          "name": "",
          "type": "uint256"
        }
      ],
      "name": "contracts",
      "outputs": [
        {
          "name": "",
          "type": "address"
        }
      ],
      "payable": false,
      "stateMutability": "view",
      "type": "function",
      "signature": "0x474da79a"
    },
    {
      "inputs": [],
      "payable": false,
      "stateMutability": "nonpayable",
      "type": "constructor",
      "signature": "constructor"
    },
    {
      "anonymous": false,
      "inputs": [
        {
          "indexed": false,
          "name": "contractAddress",
          "type": "address"
        }
      ],
      "name": "newProofClaimContract",
      "type": "event",
      "signature": "0x5ac718467c8c5cd4a3b839f07f301a62ea058e5fa9c1e524b95f3cd9884d1c17"
    },
    {
      "constant": true,
      "inputs": [],
      "name": "getContractCount",
      "outputs": [
        {
          "name": "contractCount",
          "type": "uint256"
        }
      ],
      "payable": false,
      "stateMutability": "view",
      "type": "function",
      "signature": "0x9399869d"
    },
    {
      "constant": false,
      "inputs": [
        {
          "name": "symbol",
          "type": "string"
        },
        {
          "name": "name",
          "type": "string"
        },
        {
          "name": "owner",
          "type": "address"
        }
      ],
      "name": "newProofClaim",
      "outputs": [
        {
          "name": "",
          "type": "bool"
        }
      ],
      "payable": false,
      "stateMutability": "nonpayable",
      "type": "function",
      "signature": "0x9c4006fd"
    },
    {
      "constant": true,
      "inputs": [
        {
          "name": "pos",
          "type": "uint256"
        }
      ],
      "name": "seeProofClaim",
      "outputs": [
        {
          "name": "contractAddress",
          "type": "address"
        }
      ],
      "payable": false,
      "stateMutability": "view",
      "type": "function",
      "signature": "0xd413fdf3"
    }
  ],
  "bytecode": "0x608060405234801561001057600080fd5b506115af806100206000396000f3fe60806040526004361061006c5763ffffffff7c0100000000000000000000000000000000000000000000000000000000600035041663327097388114610071578063474da79a146100a25780639399869d146100cc5780639c4006fd146100f3578063d413fdf31461024c575b600080fd5b34801561007d57600080fd5b50610086610276565b60408051600160a060020a039092168252519081900360200190f35b3480156100ae57600080fd5b50610086600480360360208110156100c557600080fd5b5035610285565b3480156100d857600080fd5b506100e16102ad565b60408051918252519081900360200190f35b3480156100ff57600080fd5b506102386004803603606081101561011657600080fd5b81019060208101813564010000000081111561013157600080fd5b82018360208201111561014357600080fd5b8035906020019184600183028401116401000000008311171561016557600080fd5b91908080601f01602080910402602001604051908101604052809392919081815260200183838082843760009201919091525092959493602081019350359150506401000000008111156101b857600080fd5b8201836020820111156101ca57600080fd5b803590602001918460018302840111640100000000831117156101ec57600080fd5b91908080601f01602080910402602001604051908101604052809392919081815260200183838082843760009201919091525092955050509035600160a060020a031691506102b39050565b604080519115158252519081900360200190f35b34801561025857600080fd5b506100866004803603602081101561026f57600080fd5b503561046c565b600154600160a060020a031681565b600080548290811061029357fe5b600091825260209091200154600160a060020a0316905081565b60005490565b6000606481858585846102c4610497565b600160a060020a03831660408201526060810182905260808082528551908201528451819060208083019160a084019189019080838360005b838110156103155781810151838201526020016102fd565b50505050905090810190601f1680156103425780820380516001836020036101000a031916815260200191505b50838103825286518152865160209182019188019080838360005b8381101561037557818101518382015260200161035d565b50505050905090810190601f1680156103a25780820380516001836020036101000a031916815260200191505b509650505050505050604051809103906000f0801580156103c7573d6000803e3d6000fd5b5060008054600181810183559180527f290decd9548b62a8d60345a988386fc84ba6bc95484008f6362f93160ef3e563018054600160a060020a03841673ffffffffffffffffffffffffffffffffffffffff199182168117909255825416811790915560408051918252519192507f5ac718467c8c5cd4a3b839f07f301a62ea058e5fa9c1e524b95f3cd9884d1c17919081900360200190a150600195945050505050565b6000808281548110151561047c57fe5b600091825260209091200154600160a060020a031692915050565b6040516110dc806104a88339019056fe60806040523480156200001157600080fd5b50604051620010dc380380620010dc833981018060405260808110156200003757600080fd5b8101908080516401000000008111156200005057600080fd5b820160208101848111156200006457600080fd5b81516401000000008111828201871017156200007f57600080fd5b505092919060200180516401000000008111156200009c57600080fd5b82016020810184811115620000b057600080fd5b8151640100000000811182820187101715620000cb57600080fd5b505060208083015160409093015160008054600160a060020a031916331790558651929550929350620001049160029187019062000187565b5082516200011a90600390602086019062000187565b506004805460ff191660121790556005819055600160a060020a0382166000818152600660209081526040808320859055805185815290517fddf252ad1be2c89b69c2b068fc378daa952ba7f163c4a11628f55a4df523b3ef929181900390910190a3505050506200022c565b828054600181600116156101000203166002900490600052602060002090601f016020900481019282601f10620001ca57805160ff1916838001178555620001fa565b82800160010185558215620001fa579182015b82811115620001fa578251825591602001919060010190620001dd565b50620002089291506200020c565b5090565b6200022991905b8082111562000208576000815560010162000213565b90565b610ea0806200023c6000396000f3fe6080604052600436106101275763ffffffff7c010000000000000000000000000000000000000000000000000000000060003504166306fdde03811461012c578063095ea7b3146101b657806318160ddd1461020357806323b872dd1461022a578063313ce5671461026d5780633eaaf86b1461029857806344d13bb7146102ad5780634e3bfc9d146102e057806370a082311461038557806379ba5097146103b85780638da5cb5b146103cd57806395d89b41146103fe578063a293d1e814610413578063a9059cbb14610443578063b5931f7c1461047c578063cae9ca51146104ac578063d05c78da14610574578063d4ee1d90146105a4578063dc39d06d146105b9578063dd62ed3e146105f2578063e6cb90131461062d578063f2fde38b1461065d575b600080fd5b34801561013857600080fd5b50610141610690565b6040805160208082528351818301528351919283929083019185019080838360005b8381101561017b578181015183820152602001610163565b50505050905090810190601f1680156101a85780820380516001836020036101000a031916815260200191505b509250505060405180910390f35b3480156101c257600080fd5b506101ef600480360360408110156101d957600080fd5b50600160a060020a03813516906020013561071e565b604080519115158252519081900360200190f35b34801561020f57600080fd5b50610218610785565b60408051918252519081900360200190f35b34801561023657600080fd5b506101ef6004803603606081101561024d57600080fd5b50600160a060020a038135811691602081013590911690604001356107b7565b34801561027957600080fd5b506102826108b0565b6040805160ff9092168252519081900360200190f35b3480156102a457600080fd5b506102186108b9565b3480156102b957600080fd5b50610218600480360360208110156102d057600080fd5b5035600160a060020a03166108bf565b610383600480360360208110156102f657600080fd5b81019060208101813564010000000081111561031157600080fd5b82018360208201111561032357600080fd5b8035906020019184602083028401116401000000008311171561034557600080fd5b9190808060200260200160405190810160405280939291908181526020018383602002808284376000920191909152509295506108da945050505050565b005b34801561039157600080fd5b50610218600480360360208110156103a857600080fd5b5035600160a060020a03166109bf565b3480156103c457600080fd5b506103836109da565b3480156103d957600080fd5b506103e2610a62565b60408051600160a060020a039092168252519081900360200190f35b34801561040a57600080fd5b50610141610a71565b34801561041f57600080fd5b506102186004803603604081101561043657600080fd5b5080359060200135610ac9565b34801561044f57600080fd5b506101ef6004803603604081101561046657600080fd5b50600160a060020a038135169060200135610ade565b34801561048857600080fd5b506102186004803603604081101561049f57600080fd5b5080359060200135610b82565b3480156104b857600080fd5b506101ef600480360360608110156104cf57600080fd5b600160a060020a03823516916020810135918101906060810160408201356401000000008111156104ff57600080fd5b82018360208201111561051157600080fd5b8035906020019184600183028401116401000000008311171561053357600080fd5b91908080601f016020809104026020016040519081016040528093929190818152602001838380828437600092019190915250929550610ba3945050505050565b34801561058057600080fd5b506102186004803603604081101561059757600080fd5b5080359060200135610d04565b3480156105b057600080fd5b506103e2610d29565b3480156105c557600080fd5b506101ef600480360360408110156105dc57600080fd5b50600160a060020a038135169060200135610d38565b3480156105fe57600080fd5b506102186004803603604081101561061557600080fd5b50600160a060020a0381358116916020013516610df3565b34801561063957600080fd5b506102186004803603604081101561065057600080fd5b5080359060200135610e1e565b34801561066957600080fd5b506103836004803603602081101561068057600080fd5b5035600160a060020a0316610e2e565b6003805460408051602060026001851615610100026000190190941693909304601f810184900484028201840190925281815292918301828280156107165780601f106106eb57610100808354040283529160200191610716565b820191906000526020600020905b8154815290600101906020018083116106f957829003601f168201915b505050505081565b336000818152600760209081526040808320600160a060020a038716808552908352818420869055815186815291519394909390927f8c5be1e5ebec7d5bd14f71427d1e84f3dd0314c0f7b2291e5b200ac8c7c3b925928290030190a35060015b92915050565b6000805260066020527f54cdd369e4e8a8515e52ca72ec816c2101831ad1f18bf44102ed171459c9b4f8546005540390565b600160a060020a0383166000908152600660205260408120546107da9083610ac9565b600160a060020a03851660009081526006602090815260408083209390935560078152828220338352905220546108119083610ac9565b600160a060020a03808616600090815260076020908152604080832033845282528083209490945591861681526006909152205461084f9083610e1e565b600160a060020a0380851660008181526006602090815260409182902094909455805186815290519193928816927fddf252ad1be2c89b69c2b068fc378daa952ba7f163c4a11628f55a4df523b3ef92918290030190a35060019392505050565b60045460ff1681565b60055481565b600160a060020a031660009081526008602052604090205490565b60005b81518110156109bb57600082828151811015156108f657fe5b906020019060200201519050600060066000858581518110151561091657fe5b90602001906020020151600160a060020a0316600160a060020a03168152602001908152602001600020549050600060055482340281151561095457fe5b04905082600160a060020a03166108fc829081150290604051600060405180830381858888f19350505050158015610990573d6000803e3d6000fd5b50600160a060020a0390921660009081526008602052604090208054909201909155506001016108dd565b5050565b600160a060020a031660009081526006602052604090205490565b600154600160a060020a031633146109f157600080fd5b60015460008054604051600160a060020a0393841693909116917f8be0079c531659141344cd1fd0a4f28419497f9722a3daafe3b4186f6b6457e091a3600180546000805473ffffffffffffffffffffffffffffffffffffffff19908116600160a060020a03841617909155169055565b600054600160a060020a031681565b6002805460408051602060018416156101000260001901909316849004601f810184900484028201840190925281815292918301828280156107165780601f106106eb57610100808354040283529160200191610716565b600082821115610ad857600080fd5b50900390565b33600090815260066020526040812054610af89083610ac9565b3360009081526006602052604080822092909255600160a060020a03851681522054610b249083610e1e565b600160a060020a0384166000818152600660209081526040918290209390935580518581529051919233927fddf252ad1be2c89b69c2b068fc378daa952ba7f163c4a11628f55a4df523b3ef9281900390910190a350600192915050565b6000808211610b9057600080fd5b8183811515610b9b57fe5b049392505050565b336000818152600760209081526040808320600160a060020a038816808552908352818420879055815187815291519394909390927f8c5be1e5ebec7d5bd14f71427d1e84f3dd0314c0f7b2291e5b200ac8c7c3b925928290030190a36040517f8f4ffcb10000000000000000000000000000000000000000000000000000000081523360048201818152602483018690523060448401819052608060648501908152865160848601528651600160a060020a038a1695638f4ffcb195948a94938a939192909160a490910190602085019080838360005b83811015610c93578181015183820152602001610c7b565b50505050905090810190601f168015610cc05780820380516001836020036101000a031916815260200191505b5095505050505050600060405180830381600087803b158015610ce257600080fd5b505af1158015610cf6573d6000803e3d6000fd5b506001979650505050505050565b818102821580610d1e5750818382811515610d1b57fe5b04145b151561077f57600080fd5b600154600160a060020a031681565b60008054600160a060020a03163314610d5057600080fd5b60008054604080517fa9059cbb000000000000000000000000000000000000000000000000000000008152600160a060020a0392831660048201526024810186905290519186169263a9059cbb926044808401936020939083900390910190829087803b158015610dc057600080fd5b505af1158015610dd4573d6000803e3d6000fd5b505050506040513d6020811015610dea57600080fd5b50519392505050565b600160a060020a03918216600090815260076020908152604080832093909416825291909152205490565b8181018281101561077f57600080fd5b600054600160a060020a03163314610e4557600080fd5b6001805473ffffffffffffffffffffffffffffffffffffffff1916600160a060020a039290921691909117905556fea165627a7a723058201a375cc3f0ab66423c9c66a17a3a4d0087bb32d18c17c9f6e60555c00ac817cd0029a165627a7a72305820b51464659052c4bbb0e2905e8289e3493ec0b36c42fe5815de10756e65ce81040029",
  "source": "pragma solidity ^0.5.0;\n\ncontract MasterPOC {\n\n  address[] public contracts;\n  address public lastContractAddress;\n  \n  event newProofClaimContract (\n      address contractAddress\n  );\n\n  constructor()\n      public\n  {\n  }\n\n  function getContractCount()\n      public\n      view\n      returns(uint contractCount)\n  {\n    return contracts.length;\n  }\n\n  function newProofClaim(string memory symbol, string memory name, address owner)\n      public\n      returns(bool)\n  {\n    uint supply = 100;\n    ProofClaim c = new ProofClaim(symbol, name, owner, supply);\n    contracts.push(address(c));\n    lastContractAddress = address(c);\n\n    emit newProofClaimContract(address(c));\n    return true;\n  }\n\n  function seeProofClaim(uint pos)\n      public\n      view\n      returns(address contractAddress)\n  {\n    return address(contracts[pos]);\n  }\n}\n\ncontract SafeMath {\nfunction safeAdd(uint a, uint b) public pure returns (uint c) {\n    c = a + b;\n    require(c >= a);\n}\nfunction safeSub(uint a, uint b) public pure returns (uint c) {\n    require(b <= a);\n    c = a - b;\n}\nfunction safeMul(uint a, uint b) public pure returns (uint c) {\n    c = a * b;\n    require(a == 0 || c / a == b);\n}\nfunction safeDiv(uint a, uint b) public pure returns (uint c) {\n    require(b > 0);\n    c = a / b;\n}\n}\n\ncontract ERC20Interface {\n\tfunction totalSupply() public view returns (uint);\n\tfunction balanceOf(address tokenOwner) public view returns (uint balance);\n\tfunction allowance(address tokenOwner, address spender) public view returns (uint remaining);\n\tfunction transfer(address to, uint tokens) public returns (bool success);\n\tfunction approve(address spender, uint tokens) public returns (bool success);\n\tfunction transferFrom(address from, address to, uint tokens) public returns (bool success);\n\n\tevent Transfer(address indexed from, address indexed to, uint tokens);\n\tevent Approval(address indexed tokenOwner, address indexed spender, uint tokens);\n}\n\ncontract ApproveAndCallFallBack {\n\tfunction receiveApproval(address from, uint256 tokens, address token, bytes memory data) public;\n}\n\ncontract Owned {\n\taddress public owner;\n\taddress public newOwner;\n\n\tevent OwnershipTransferred(address indexed _from, address indexed _to);\n\n\tconstructor() public {\n    \towner = msg.sender;\n\t}\n\n\tmodifier onlyOwner {\n    \trequire(msg.sender == owner);\n    \t_;\n\t}\n\n\tfunction transferOwnership(address _newOwner) public onlyOwner {\n    \tnewOwner = _newOwner;\n\t}\n\tfunction acceptOwnership() public {\n    \trequire(msg.sender == newOwner);\n    \temit OwnershipTransferred(owner, newOwner);\n    \towner = newOwner;\n    \tnewOwner = address(0);\n\t}\n}\n\ncontract ProofClaim is ERC20Interface, Owned, SafeMath {\n\tstring public symbol;\n\tstring public  name;\n\tuint8 public decimals;\n\tuint public _totalSupply;\n\n\tmapping(address => uint) balances;\n\tmapping(address => mapping(address => uint)) allowed;\n\tmapping(address => uint) amountPaid;\n    \nconstructor(string memory _symbol, string memory _name, address _owner, uint _supply) public {\n    \tsymbol = _symbol;\n    \tname = _name;\n    \tdecimals = 18;\n    \t_totalSupply = _supply;\n    \tbalances[_owner] = _totalSupply;\n    \temit Transfer(address(0), _owner, _totalSupply);\n}\n\nfunction totalSupply() public view returns (uint) {\n    \treturn _totalSupply  - balances[address(0)];\n}\n\nfunction balanceOf(address tokenOwner) public view returns (uint balance) {\n    \treturn balances[tokenOwner];\n}\n\nfunction transfer(address to, uint tokens) public returns (bool success) {\n    \tbalances[msg.sender] = safeSub(balances[msg.sender], tokens);\n    \tbalances[to] = safeAdd(balances[to], tokens);\n    \temit Transfer(msg.sender, to, tokens);\n    \treturn true;\n}\n\nfunction approve(address spender, uint tokens) public returns (bool success) {\n    \tallowed[msg.sender][spender] = tokens;\n    \temit Approval(msg.sender, spender, tokens);\n    \treturn true;\n}\n\nfunction transferFrom(address from, address to, uint tokens) public returns (bool success) {\n    \tbalances[from] = safeSub(balances[from], tokens);\n    \tallowed[from][msg.sender] = safeSub(allowed[from][msg.sender], tokens);\n    \tbalances[to] = safeAdd(balances[to], tokens);\n    \temit Transfer(from, to, tokens);\n    \treturn true;\n}\n\nfunction allowance(address tokenOwner, address spender) public view returns (uint remaining) {\n    \treturn allowed[tokenOwner][spender];\n}\n\nfunction approveAndCall(address spender, uint tokens, bytes memory data) public returns (bool success) {\n    \tallowed[msg.sender][spender] = tokens;\n    \temit Approval(msg.sender, spender, tokens);\n    \tApproveAndCallFallBack(spender).receiveApproval(msg.sender, tokens, address(this), data);\n    \treturn true;\n}\n\nfunction () external payable {\n    \trevert();\n}\n\nfunction transferAnyERC20Token(address tokenAddress, uint tokens) public onlyOwner returns (bool success) {\n    \treturn ERC20Interface(tokenAddress).transfer(owner, tokens);\n\t}\n\nfunction disbursePayment(address[] memory _addresses) public payable {\n\t\tfor (uint i = 0; i < _addresses.length; i++) {\n\t\t\taddress payable _addr = address(uint160(_addresses[i]));\n\t\t\tuint balance = balances[_addresses[i]];\n\t\t\tuint paymentAmount = msg.value*balance/_totalSupply;\n\t\t\t_addr.transfer(paymentAmount);\n\t\t\tamountPaid[_addr] = amountPaid[_addr] + paymentAmount;\n\t\t}\n\t}\t\t\n\nfunction getAmountPaid(address _address) public returns (uint) { \n\t\treturn amountPaid[_address]; \n\t}\n}",
  "sourcePath": "/home/josh/dev/income-share/contracts/MasterPOC.sol",
  "compiler": {
    "name": "solc",
    "version": "0.5.0+commit.1d4f565a.Emscripten.clang"
  },
  "schemaVersion": "3.0.8",
  "updatedAt": "2019-05-25T22:43:12.516Z",
  "devdoc": {
    "methods": {}
  },
  "userdoc": {
    "methods": {}
  }
}