{
  "contractName": "ProofClaim",
  "abi": [
    {
      "constant": true,
      "inputs": [],
      "name": "name",
      "outputs": [
        {
          "name": "",
          "type": "string"
        }
      ],
      "payable": false,
      "stateMutability": "view",
      "type": "function"
    },
    {
      "constant": true,
      "inputs": [],
      "name": "decimals",
      "outputs": [
        {
          "name": "",
          "type": "uint8"
        }
      ],
      "payable": false,
      "stateMutability": "view",
      "type": "function"
    },
    {
      "constant": true,
      "inputs": [],
      "name": "_totalSupply",
      "outputs": [
        {
          "name": "",
          "type": "uint256"
        }
      ],
      "payable": false,
      "stateMutability": "view",
      "type": "function"
    },
    {
      "constant": false,
      "inputs": [],
      "name": "acceptOwnership",
      "outputs": [],
      "payable": false,
      "stateMutability": "nonpayable",
      "type": "function"
    },
    {
      "constant": true,
      "inputs": [],
      "name": "owner",
      "outputs": [
        {
          "name": "",
          "type": "address"
        }
      ],
      "payable": false,
      "stateMutability": "view",
      "type": "function"
    },
    {
      "constant": true,
      "inputs": [],
      "name": "symbol",
      "outputs": [
        {
          "name": "",
          "type": "string"
        }
      ],
      "payable": false,
      "stateMutability": "view",
      "type": "function"
    },
    {
      "constant": true,
      "inputs": [
        {
          "name": "a",
          "type": "uint256"
        },
        {
          "name": "b",
          "type": "uint256"
        }
      ],
      "name": "safeSub",
      "outputs": [
        {
          "name": "c",
          "type": "uint256"
        }
      ],
      "payable": false,
      "stateMutability": "pure",
      "type": "function"
    },
    {
      "constant": true,
      "inputs": [
        {
          "name": "a",
          "type": "uint256"
        },
        {
          "name": "b",
          "type": "uint256"
        }
      ],
      "name": "safeDiv",
      "outputs": [
        {
          "name": "c",
          "type": "uint256"
        }
      ],
      "payable": false,
      "stateMutability": "pure",
      "type": "function"
    },
    {
      "constant": true,
      "inputs": [
        {
          "name": "a",
          "type": "uint256"
        },
        {
          "name": "b",
          "type": "uint256"
        }
      ],
      "name": "safeMul",
      "outputs": [
        {
          "name": "c",
          "type": "uint256"
        }
      ],
      "payable": false,
      "stateMutability": "pure",
      "type": "function"
    },
    {
      "constant": true,
      "inputs": [],
      "name": "newOwner",
      "outputs": [
        {
          "name": "",
          "type": "address"
        }
      ],
      "payable": false,
      "stateMutability": "view",
      "type": "function"
    },
    {
      "constant": true,
      "inputs": [
        {
          "name": "a",
          "type": "uint256"
        },
        {
          "name": "b",
          "type": "uint256"
        }
      ],
      "name": "safeAdd",
      "outputs": [
        {
          "name": "c",
          "type": "uint256"
        }
      ],
      "payable": false,
      "stateMutability": "pure",
      "type": "function"
    },
    {
      "constant": false,
      "inputs": [
        {
          "name": "_newOwner",
          "type": "address"
        }
      ],
      "name": "transferOwnership",
      "outputs": [],
      "payable": false,
      "stateMutability": "nonpayable",
      "type": "function"
    },
    {
      "inputs": [
        {
          "name": "_symbol",
          "type": "string"
        },
        {
          "name": "_name",
          "type": "string"
        },
        {
          "name": "_owner",
          "type": "address"
        },
        {
          "name": "_supply",
          "type": "uint256"
        }
      ],
      "payable": false,
      "stateMutability": "nonpayable",
      "type": "constructor"
    },
    {
      "payable": true,
      "stateMutability": "payable",
      "type": "fallback"
    },
    {
      "anonymous": false,
      "inputs": [
        {
          "indexed": true,
          "name": "_from",
          "type": "address"
        },
        {
          "indexed": true,
          "name": "_to",
          "type": "address"
        }
      ],
      "name": "OwnershipTransferred",
      "type": "event"
    },
    {
      "anonymous": false,
      "inputs": [
        {
          "indexed": true,
          "name": "from",
          "type": "address"
        },
        {
          "indexed": true,
          "name": "to",
          "type": "address"
        },
        {
          "indexed": false,
          "name": "tokens",
          "type": "uint256"
        }
      ],
      "name": "Transfer",
      "type": "event"
    },
    {
      "anonymous": false,
      "inputs": [
        {
          "indexed": true,
          "name": "tokenOwner",
          "type": "address"
        },
        {
          "indexed": true,
          "name": "spender",
          "type": "address"
        },
        {
          "indexed": false,
          "name": "tokens",
          "type": "uint256"
        }
      ],
      "name": "Approval",
      "type": "event"
    },
    {
      "constant": true,
      "inputs": [],
      "name": "totalSupply",
      "outputs": [
        {
          "name": "",
          "type": "uint256"
        }
      ],
      "payable": false,
      "stateMutability": "view",
      "type": "function"
    },
    {
      "constant": true,
      "inputs": [
        {
          "name": "tokenOwner",
          "type": "address"
        }
      ],
      "name": "balanceOf",
      "outputs": [
        {
          "name": "balance",
          "type": "uint256"
        }
      ],
      "payable": false,
      "stateMutability": "view",
      "type": "function"
    },
    {
      "constant": false,
      "inputs": [
        {
          "name": "to",
          "type": "address"
        },
        {
          "name": "tokens",
          "type": "uint256"
        }
      ],
      "name": "transfer",
      "outputs": [
        {
          "name": "success",
          "type": "bool"
        }
      ],
      "payable": false,
      "stateMutability": "nonpayable",
      "type": "function"
    },
    {
      "constant": false,
      "inputs": [
        {
          "name": "spender",
          "type": "address"
        },
        {
          "name": "tokens",
          "type": "uint256"
        }
      ],
      "name": "approve",
      "outputs": [
        {
          "name": "success",
          "type": "bool"
        }
      ],
      "payable": false,
      "stateMutability": "nonpayable",
      "type": "function"
    },
    {
      "constant": false,
      "inputs": [
        {
          "name": "from",
          "type": "address"
        },
        {
          "name": "to",
          "type": "address"
        },
        {
          "name": "tokens",
          "type": "uint256"
        }
      ],
      "name": "transferFrom",
      "outputs": [
        {
          "name": "success",
          "type": "bool"
        }
      ],
      "payable": false,
      "stateMutability": "nonpayable",
      "type": "function"
    },
    {
      "constant": true,
      "inputs": [
        {
          "name": "tokenOwner",
          "type": "address"
        },
        {
          "name": "spender",
          "type": "address"
        }
      ],
      "name": "allowance",
      "outputs": [
        {
          "name": "remaining",
          "type": "uint256"
        }
      ],
      "payable": false,
      "stateMutability": "view",
      "type": "function"
    },
    {
      "constant": false,
      "inputs": [
        {
          "name": "spender",
          "type": "address"
        },
        {
          "name": "tokens",
          "type": "uint256"
        },
        {
          "name": "data",
          "type": "bytes"
        }
      ],
      "name": "approveAndCall",
      "outputs": [
        {
          "name": "success",
          "type": "bool"
        }
      ],
      "payable": false,
      "stateMutability": "nonpayable",
      "type": "function"
    },
    {
      "constant": false,
      "inputs": [
        {
          "name": "tokenAddress",
          "type": "address"
        },
        {
          "name": "tokens",
          "type": "uint256"
        }
      ],
      "name": "transferAnyERC20Token",
      "outputs": [
        {
          "name": "success",
          "type": "bool"
        }
      ],
      "payable": false,
      "stateMutability": "nonpayable",
      "type": "function"
    },
    {
      "constant": false,
      "inputs": [
        {
          "name": "_addresses",
          "type": "address[]"
        }
      ],
      "name": "disbursePayment",
      "outputs": [],
      "payable": true,
      "stateMutability": "payable",
      "type": "function"
    },
    {
      "constant": false,
      "inputs": [
        {
          "name": "_address",
          "type": "address"
        }
      ],
      "name": "getAmountPaid",
      "outputs": [
        {
          "name": "",
          "type": "uint256"
        }
      ],
      "payable": false,
      "stateMutability": "nonpayable",
      "type": "function"
    }
  ],
  "bytecode": "0x60806040523480156200001157600080fd5b506040516200109438038062001094833981018060405260808110156200003757600080fd5b8101908080516401000000008111156200005057600080fd5b820160208101848111156200006457600080fd5b81516401000000008111828201871017156200007f57600080fd5b505092919060200180516401000000008111156200009c57600080fd5b82016020810184811115620000b057600080fd5b8151640100000000811182820187101715620000cb57600080fd5b5050602080830151604090930151600080546001600160a01b031916331790558651929550929350620001049160029187019062000187565b5082516200011a90600390602086019062000187565b506004805460ff1916601217905560058190556001600160a01b0382166000818152600660209081526040808320859055805185815290517fddf252ad1be2c89b69c2b068fc378daa952ba7f163c4a11628f55a4df523b3ef929181900390910190a3505050506200022c565b828054600181600116156101000203166002900490600052602060002090601f016020900481019282601f10620001ca57805160ff1916838001178555620001fa565b82800160010185558215620001fa579182015b82811115620001fa578251825591602001919060010190620001dd565b50620002089291506200020c565b5090565b6200022991905b8082111562000208576000815560010162000213565b90565b610e58806200023c6000396000f3fe6080604052600436106101355760003560e01c806395d89b41116100ab578063d05c78da1161006f578063d05c78da14610582578063d4ee1d90146105b2578063dc39d06d146105c7578063dd62ed3e14610600578063e6cb90131461063b578063f2fde38b1461066b57610135565b806395d89b411461040c578063a293d1e814610421578063a9059cbb14610451578063b5931f7c1461048a578063cae9ca51146104ba57610135565b80633eaaf86b116100fd5780633eaaf86b146102a657806344d13bb7146102bb5780634e3bfc9d146102ee57806370a082311461039357806379ba5097146103c65780638da5cb5b146103db57610135565b806306fdde031461013a578063095ea7b3146101c457806318160ddd1461021157806323b872dd14610238578063313ce5671461027b575b600080fd5b34801561014657600080fd5b5061014f61069e565b6040805160208082528351818301528351919283929083019185019080838360005b83811015610189578181015183820152602001610171565b50505050905090810190601f1680156101b65780820380516001836020036101000a031916815260200191505b509250505060405180910390f35b3480156101d057600080fd5b506101fd600480360360408110156101e757600080fd5b506001600160a01b03813516906020013561072c565b604080519115158252519081900360200190f35b34801561021d57600080fd5b50610226610793565b60408051918252519081900360200190f35b34801561024457600080fd5b506101fd6004803603606081101561025b57600080fd5b506001600160a01b038135811691602081013590911690604001356107c5565b34801561028757600080fd5b506102906108be565b6040805160ff9092168252519081900360200190f35b3480156102b257600080fd5b506102266108c7565b3480156102c757600080fd5b50610226600480360360208110156102de57600080fd5b50356001600160a01b03166108cd565b6103916004803603602081101561030457600080fd5b81019060208101813564010000000081111561031f57600080fd5b82018360208201111561033157600080fd5b8035906020019184602083028401116401000000008311171561035357600080fd5b9190808060200260200160405190810160405280939291908181526020018383602002808284376000920191909152509295506108e8945050505050565b005b34801561039f57600080fd5b50610226600480360360208110156103b657600080fd5b50356001600160a01b03166109c3565b3480156103d257600080fd5b506103916109de565b3480156103e757600080fd5b506103f0610a59565b604080516001600160a01b039092168252519081900360200190f35b34801561041857600080fd5b5061014f610a68565b34801561042d57600080fd5b506102266004803603604081101561044457600080fd5b5080359060200135610ac0565b34801561045d57600080fd5b506101fd6004803603604081101561047457600080fd5b506001600160a01b038135169060200135610ad5565b34801561049657600080fd5b50610226600480360360408110156104ad57600080fd5b5080359060200135610b79565b3480156104c657600080fd5b506101fd600480360360608110156104dd57600080fd5b6001600160a01b038235169160208101359181019060608101604082013564010000000081111561050d57600080fd5b82018360208201111561051f57600080fd5b8035906020019184600183028401116401000000008311171561054157600080fd5b91908080601f016020809104026020016040519081016040528093929190818152602001838380828437600092019190915250929550610b98945050505050565b34801561058e57600080fd5b50610226600480360360408110156105a557600080fd5b5080359060200135610ce3565b3480156105be57600080fd5b506103f0610d04565b3480156105d357600080fd5b506101fd600480360360408110156105ea57600080fd5b506001600160a01b038135169060200135610d13565b34801561060c57600080fd5b506102266004803603604081101561062357600080fd5b506001600160a01b0381358116916020013516610db8565b34801561064757600080fd5b506102266004803603604081101561065e57600080fd5b5080359060200135610de3565b34801561067757600080fd5b506103916004803603602081101561068e57600080fd5b50356001600160a01b0316610df3565b6003805460408051602060026001851615610100026000190190941693909304601f810184900484028201840190925281815292918301828280156107245780601f106106f957610100808354040283529160200191610724565b820191906000526020600020905b81548152906001019060200180831161070757829003601f168201915b505050505081565b3360008181526007602090815260408083206001600160a01b038716808552908352818420869055815186815291519394909390927f8c5be1e5ebec7d5bd14f71427d1e84f3dd0314c0f7b2291e5b200ac8c7c3b925928290030190a35060015b92915050565b6000805260066020527f54cdd369e4e8a8515e52ca72ec816c2101831ad1f18bf44102ed171459c9b4f8546005540390565b6001600160a01b0383166000908152600660205260408120546107e89083610ac0565b6001600160a01b038516600090815260066020908152604080832093909355600781528282203383529052205461081f9083610ac0565b6001600160a01b03808616600090815260076020908152604080832033845282528083209490945591861681526006909152205461085d9083610de3565b6001600160a01b0380851660008181526006602090815260409182902094909455805186815290519193928816927fddf252ad1be2c89b69c2b068fc378daa952ba7f163c4a11628f55a4df523b3ef92918290030190a35060019392505050565b60045460ff1681565b60055481565b6001600160a01b031660009081526008602052604090205490565b60005b81518110156109bf57600082828151811061090257fe5b6020026020010151905060006006600085858151811061091e57fe5b60200260200101516001600160a01b03166001600160a01b0316815260200190815260200160002054905060006005548234028161095857fe5b049050826001600160a01b03166108fc829081150290604051600060405180830381858888f19350505050158015610994573d6000803e3d6000fd5b506001600160a01b0390921660009081526008602052604090208054909201909155506001016108eb565b5050565b6001600160a01b031660009081526006602052604090205490565b6001546001600160a01b031633146109f557600080fd5b600154600080546040516001600160a01b0393841693909116917f8be0079c531659141344cd1fd0a4f28419497f9722a3daafe3b4186f6b6457e091a360018054600080546001600160a01b03199081166001600160a01b03841617909155169055565b6000546001600160a01b031681565b6002805460408051602060018416156101000260001901909316849004601f810184900484028201840190925281815292918301828280156107245780601f106106f957610100808354040283529160200191610724565b600082821115610acf57600080fd5b50900390565b33600090815260066020526040812054610aef9083610ac0565b33600090815260066020526040808220929092556001600160a01b03851681522054610b1b9083610de3565b6001600160a01b0384166000818152600660209081526040918290209390935580518581529051919233927fddf252ad1be2c89b69c2b068fc378daa952ba7f163c4a11628f55a4df523b3ef9281900390910190a350600192915050565b6000808211610b8757600080fd5b818381610b9057fe5b049392505050565b3360008181526007602090815260408083206001600160a01b038816808552908352818420879055815187815291519394909390927f8c5be1e5ebec7d5bd14f71427d1e84f3dd0314c0f7b2291e5b200ac8c7c3b925928290030190a3604051600160e01b638f4ffcb102815233600482018181526024830186905230604484018190526080606485019081528651608486015286516001600160a01b038a1695638f4ffcb195948a94938a939192909160a490910190602085019080838360005b83811015610c72578181015183820152602001610c5a565b50505050905090810190601f168015610c9f5780820380516001836020036101000a031916815260200191505b5095505050505050600060405180830381600087803b158015610cc157600080fd5b505af1158015610cd5573d6000803e3d6000fd5b506001979650505050505050565b818102821580610cfb575081838281610cf857fe5b04145b61078d57600080fd5b6001546001600160a01b031681565b600080546001600160a01b03163314610d2b57600080fd5b6000805460408051600160e01b63a9059cbb0281526001600160a01b0392831660048201526024810186905290519186169263a9059cbb926044808401936020939083900390910190829087803b158015610d8557600080fd5b505af1158015610d99573d6000803e3d6000fd5b505050506040513d6020811015610daf57600080fd5b50519392505050565b6001600160a01b03918216600090815260076020908152604080832093909416825291909152205490565b8181018281101561078d57600080fd5b6000546001600160a01b03163314610e0a57600080fd5b600180546001600160a01b0319166001600160a01b039290921691909117905556fea165627a7a72305820f1d8f8c177d371bb81e2d21562b40a628ce16d907f5957e0f05ea7f002b1894e0029",
  "source": "pragma solidity ^0.5.0;\n\ncontract MasterPOC {\n\n  address[] public contracts;\n  address public lastContractAddress;\n  \n  event newProofClaimContract (\n      address contractAddress\n  );\n\n  constructor()\n      public\n  {\n  }\n\n  function getContractCount()\n      public\n      view\n      returns(uint contractCount)\n  {\n    return contracts.length;\n  }\n\n  function newProofClaim(string memory symbol, string memory name, address owner)\n      public\n      returns(bool)\n  {\n    uint supply = 100*1e18;\n    ProofClaim c = new ProofClaim(symbol, name, owner, supply);\n    contracts.push(address(c));\n    lastContractAddress = address(c);\n\n    emit newProofClaimContract(address(c));\n    return true;\n  }\n\n  function seeProofClaim(uint pos)\n      public\n      view\n      returns(address contractAddress)\n  {\n    return address(contracts[pos]);\n  }\n}\n\ncontract SafeMath {\nfunction safeAdd(uint a, uint b) public pure returns (uint c) {\n    c = a + b;\n    require(c >= a);\n}\nfunction safeSub(uint a, uint b) public pure returns (uint c) {\n    require(b <= a);\n    c = a - b;\n}\nfunction safeMul(uint a, uint b) public pure returns (uint c) {\n    c = a * b;\n    require(a == 0 || c / a == b);\n}\nfunction safeDiv(uint a, uint b) public pure returns (uint c) {\n    require(b > 0);\n    c = a / b;\n}\n}\n\ncontract ERC20Interface {\n\tfunction totalSupply() public view returns (uint);\n\tfunction balanceOf(address tokenOwner) public view returns (uint balance);\n\tfunction allowance(address tokenOwner, address spender) public view returns (uint remaining);\n\tfunction transfer(address to, uint tokens) public returns (bool success);\n\tfunction approve(address spender, uint tokens) public returns (bool success);\n\tfunction transferFrom(address from, address to, uint tokens) public returns (bool success);\n\n\tevent Transfer(address indexed from, address indexed to, uint tokens);\n\tevent Approval(address indexed tokenOwner, address indexed spender, uint tokens);\n}\n\ncontract ApproveAndCallFallBack {\n\tfunction receiveApproval(address from, uint256 tokens, address token, bytes memory data) public;\n}\n\ncontract Owned {\n\taddress public owner;\n\taddress public newOwner;\n\n\tevent OwnershipTransferred(address indexed _from, address indexed _to);\n\n\tconstructor() public {\n    \towner = msg.sender;\n\t}\n\n\tmodifier onlyOwner {\n    \trequire(msg.sender == owner);\n    \t_;\n\t}\n\n\tfunction transferOwnership(address _newOwner) public onlyOwner {\n    \tnewOwner = _newOwner;\n\t}\n\tfunction acceptOwnership() public {\n    \trequire(msg.sender == newOwner);\n    \temit OwnershipTransferred(owner, newOwner);\n    \towner = newOwner;\n    \tnewOwner = address(0);\n\t}\n}\n\ncontract ProofClaim is ERC20Interface, Owned, SafeMath {\n\tstring public symbol;\n\tstring public  name;\n\tuint8 public decimals;\n\tuint public _totalSupply;\n\n\tmapping(address => uint) balances;\n\tmapping(address => mapping(address => uint)) allowed;\n\tmapping(address => uint) amountPaid;\n    \nconstructor(string memory _symbol, string memory _name, address _owner, uint _supply) public {\n    \tsymbol = _symbol;\n    \tname = _name;\n    \tdecimals = 18;\n    \t_totalSupply = _supply;\n    \tbalances[_owner] = _totalSupply;\n    \temit Transfer(address(0), _owner, _totalSupply);\n}\n\nfunction totalSupply() public view returns (uint) {\n    \treturn _totalSupply  - balances[address(0)];\n}\n\nfunction balanceOf(address tokenOwner) public view returns (uint balance) {\n    \treturn balances[tokenOwner];\n}\n\nfunction transfer(address to, uint tokens) public returns (bool success) {\n    \tbalances[msg.sender] = safeSub(balances[msg.sender], tokens);\n    \tbalances[to] = safeAdd(balances[to], tokens);\n    \temit Transfer(msg.sender, to, tokens);\n    \treturn true;\n}\n\nfunction approve(address spender, uint tokens) public returns (bool success) {\n    \tallowed[msg.sender][spender] = tokens;\n    \temit Approval(msg.sender, spender, tokens);\n    \treturn true;\n}\n\nfunction transferFrom(address from, address to, uint tokens) public returns (bool success) {\n    \tbalances[from] = safeSub(balances[from], tokens);\n    \tallowed[from][msg.sender] = safeSub(allowed[from][msg.sender], tokens);\n    \tbalances[to] = safeAdd(balances[to], tokens);\n    \temit Transfer(from, to, tokens);\n    \treturn true;\n}\n\nfunction allowance(address tokenOwner, address spender) public view returns (uint remaining) {\n    \treturn allowed[tokenOwner][spender];\n}\n\nfunction approveAndCall(address spender, uint tokens, bytes memory data) public returns (bool success) {\n    \tallowed[msg.sender][spender] = tokens;\n    \temit Approval(msg.sender, spender, tokens);\n    \tApproveAndCallFallBack(spender).receiveApproval(msg.sender, tokens, address(this), data);\n    \treturn true;\n}\n\nfunction () external payable {\n    \trevert();\n}\n\nfunction transferAnyERC20Token(address tokenAddress, uint tokens) public onlyOwner returns (bool success) {\n    \treturn ERC20Interface(tokenAddress).transfer(owner, tokens);\n\t}\n\nfunction disbursePayment(address[] memory _addresses) public payable {\n\t\tfor (uint i = 0; i < _addresses.length; i++) {\n\t\t\taddress payable _addr = address(uint160(_addresses[i]));\n\t\t\tuint balance = balances[_addresses[i]];\n\t\t\tuint paymentAmount = msg.value*balance/_totalSupply;\n\t\t\t_addr.transfer(paymentAmount);\n\t\t\tamountPaid[_addr] = amountPaid[_addr] + paymentAmount;\n\t\t}\n\t}\t\t\n\nfunction getAmountPaid(address _address) public returns (uint) { \n\t\treturn amountPaid[_address]; \n\t}\n}",
  "sourcePath": "/home/josh/dev/income-share/contracts/MasterPOC.sol",
  "compiler": {
    "name": "solc",
    "version": "0.5.8+commit.23d335f2.Emscripten.clang"
  },
  "schemaVersion": "3.0.10",
  "updatedAt": "2019-06-07T17:49:29.275Z",
  "devdoc": {
    "methods": {}
  },
  "userdoc": {
    "methods": {}
  }
}