{
  "contractName": "ProofClaim",
  "abi": [
    {
      "constant": true,
      "inputs": [],
      "name": "name",
      "outputs": [
        {
          "name": "",
          "type": "string"
        }
      ],
      "payable": false,
      "stateMutability": "view",
      "type": "function"
    },
    {
      "constant": true,
      "inputs": [],
      "name": "decimals",
      "outputs": [
        {
          "name": "",
          "type": "uint8"
        }
      ],
      "payable": false,
      "stateMutability": "view",
      "type": "function"
    },
    {
      "constant": true,
      "inputs": [],
      "name": "_totalSupply",
      "outputs": [
        {
          "name": "",
          "type": "uint256"
        }
      ],
      "payable": false,
      "stateMutability": "view",
      "type": "function"
    },
    {
      "constant": false,
      "inputs": [],
      "name": "acceptOwnership",
      "outputs": [],
      "payable": false,
      "stateMutability": "nonpayable",
      "type": "function"
    },
    {
      "constant": true,
      "inputs": [],
      "name": "owner",
      "outputs": [
        {
          "name": "",
          "type": "address"
        }
      ],
      "payable": false,
      "stateMutability": "view",
      "type": "function"
    },
    {
      "constant": true,
      "inputs": [],
      "name": "symbol",
      "outputs": [
        {
          "name": "",
          "type": "string"
        }
      ],
      "payable": false,
      "stateMutability": "view",
      "type": "function"
    },
    {
      "constant": true,
      "inputs": [
        {
          "name": "a",
          "type": "uint256"
        },
        {
          "name": "b",
          "type": "uint256"
        }
      ],
      "name": "safeSub",
      "outputs": [
        {
          "name": "c",
          "type": "uint256"
        }
      ],
      "payable": false,
      "stateMutability": "pure",
      "type": "function"
    },
    {
      "constant": true,
      "inputs": [
        {
          "name": "a",
          "type": "uint256"
        },
        {
          "name": "b",
          "type": "uint256"
        }
      ],
      "name": "safeDiv",
      "outputs": [
        {
          "name": "c",
          "type": "uint256"
        }
      ],
      "payable": false,
      "stateMutability": "pure",
      "type": "function"
    },
    {
      "constant": true,
      "inputs": [
        {
          "name": "a",
          "type": "uint256"
        },
        {
          "name": "b",
          "type": "uint256"
        }
      ],
      "name": "safeMul",
      "outputs": [
        {
          "name": "c",
          "type": "uint256"
        }
      ],
      "payable": false,
      "stateMutability": "pure",
      "type": "function"
    },
    {
      "constant": true,
      "inputs": [],
      "name": "newOwner",
      "outputs": [
        {
          "name": "",
          "type": "address"
        }
      ],
      "payable": false,
      "stateMutability": "view",
      "type": "function"
    },
    {
      "constant": true,
      "inputs": [
        {
          "name": "a",
          "type": "uint256"
        },
        {
          "name": "b",
          "type": "uint256"
        }
      ],
      "name": "safeAdd",
      "outputs": [
        {
          "name": "c",
          "type": "uint256"
        }
      ],
      "payable": false,
      "stateMutability": "pure",
      "type": "function"
    },
    {
      "constant": false,
      "inputs": [
        {
          "name": "_newOwner",
          "type": "address"
        }
      ],
      "name": "transferOwnership",
      "outputs": [],
      "payable": false,
      "stateMutability": "nonpayable",
      "type": "function"
    },
    {
      "inputs": [
        {
          "name": "_symbol",
          "type": "string"
        },
        {
          "name": "_name",
          "type": "string"
        },
        {
          "name": "_owner",
          "type": "address"
        },
        {
          "name": "_supply",
          "type": "uint256"
        }
      ],
      "payable": false,
      "stateMutability": "nonpayable",
      "type": "constructor"
    },
    {
      "payable": true,
      "stateMutability": "payable",
      "type": "fallback"
    },
    {
      "anonymous": false,
      "inputs": [
        {
          "indexed": true,
          "name": "_from",
          "type": "address"
        },
        {
          "indexed": true,
          "name": "_to",
          "type": "address"
        }
      ],
      "name": "OwnershipTransferred",
      "type": "event"
    },
    {
      "anonymous": false,
      "inputs": [
        {
          "indexed": true,
          "name": "from",
          "type": "address"
        },
        {
          "indexed": true,
          "name": "to",
          "type": "address"
        },
        {
          "indexed": false,
          "name": "tokens",
          "type": "uint256"
        }
      ],
      "name": "Transfer",
      "type": "event"
    },
    {
      "anonymous": false,
      "inputs": [
        {
          "indexed": true,
          "name": "tokenOwner",
          "type": "address"
        },
        {
          "indexed": true,
          "name": "spender",
          "type": "address"
        },
        {
          "indexed": false,
          "name": "tokens",
          "type": "uint256"
        }
      ],
      "name": "Approval",
      "type": "event"
    },
    {
      "constant": true,
      "inputs": [],
      "name": "totalSupply",
      "outputs": [
        {
          "name": "",
          "type": "uint256"
        }
      ],
      "payable": false,
      "stateMutability": "view",
      "type": "function"
    },
    {
      "constant": true,
      "inputs": [
        {
          "name": "tokenOwner",
          "type": "address"
        }
      ],
      "name": "balanceOf",
      "outputs": [
        {
          "name": "balance",
          "type": "uint256"
        }
      ],
      "payable": false,
      "stateMutability": "view",
      "type": "function"
    },
    {
      "constant": false,
      "inputs": [
        {
          "name": "to",
          "type": "address"
        },
        {
          "name": "tokens",
          "type": "uint256"
        }
      ],
      "name": "transfer",
      "outputs": [
        {
          "name": "success",
          "type": "bool"
        }
      ],
      "payable": false,
      "stateMutability": "nonpayable",
      "type": "function"
    },
    {
      "constant": false,
      "inputs": [
        {
          "name": "spender",
          "type": "address"
        },
        {
          "name": "tokens",
          "type": "uint256"
        }
      ],
      "name": "approve",
      "outputs": [
        {
          "name": "success",
          "type": "bool"
        }
      ],
      "payable": false,
      "stateMutability": "nonpayable",
      "type": "function"
    },
    {
      "constant": false,
      "inputs": [
        {
          "name": "from",
          "type": "address"
        },
        {
          "name": "to",
          "type": "address"
        },
        {
          "name": "tokens",
          "type": "uint256"
        }
      ],
      "name": "transferFrom",
      "outputs": [
        {
          "name": "success",
          "type": "bool"
        }
      ],
      "payable": false,
      "stateMutability": "nonpayable",
      "type": "function"
    },
    {
      "constant": true,
      "inputs": [
        {
          "name": "tokenOwner",
          "type": "address"
        },
        {
          "name": "spender",
          "type": "address"
        }
      ],
      "name": "allowance",
      "outputs": [
        {
          "name": "remaining",
          "type": "uint256"
        }
      ],
      "payable": false,
      "stateMutability": "view",
      "type": "function"
    },
    {
      "constant": false,
      "inputs": [
        {
          "name": "spender",
          "type": "address"
        },
        {
          "name": "tokens",
          "type": "uint256"
        },
        {
          "name": "data",
          "type": "bytes"
        }
      ],
      "name": "approveAndCall",
      "outputs": [
        {
          "name": "success",
          "type": "bool"
        }
      ],
      "payable": false,
      "stateMutability": "nonpayable",
      "type": "function"
    },
    {
      "constant": false,
      "inputs": [
        {
          "name": "tokenAddress",
          "type": "address"
        },
        {
          "name": "tokens",
          "type": "uint256"
        }
      ],
      "name": "transferAnyERC20Token",
      "outputs": [
        {
          "name": "success",
          "type": "bool"
        }
      ],
      "payable": false,
      "stateMutability": "nonpayable",
      "type": "function"
    }
  ],
  "bytecode": "0x60806040523480156200001157600080fd5b5060405162000ef038038062000ef0833981018060405260808110156200003757600080fd5b8101908080516401000000008111156200005057600080fd5b820160208101848111156200006457600080fd5b81516401000000008111828201871017156200007f57600080fd5b505092919060200180516401000000008111156200009c57600080fd5b82016020810184811115620000b057600080fd5b8151640100000000811182820187101715620000cb57600080fd5b505060208083015160409093015160008054600160a060020a031916331790558651929550929350620001049160029187019062000187565b5082516200011a90600390602086019062000187565b506004805460ff191660121790556005819055600160a060020a0382166000818152600660209081526040808320859055805185815290517fddf252ad1be2c89b69c2b068fc378daa952ba7f163c4a11628f55a4df523b3ef929181900390910190a3505050506200022c565b828054600181600116156101000203166002900490600052602060002090601f016020900481019282601f10620001ca57805160ff1916838001178555620001fa565b82800160010185558215620001fa579182015b82811115620001fa578251825591602001919060010190620001dd565b50620002089291506200020c565b5090565b6200022991905b8082111562000208576000815560010162000213565b90565b610cb4806200023c6000396000f3fe6080604052600436106101115763ffffffff7c010000000000000000000000000000000000000000000000000000000060003504166306fdde038114610116578063095ea7b3146101a057806318160ddd146101ed57806323b872dd14610214578063313ce567146102575780633eaaf86b1461028257806370a082311461029757806379ba5097146102ca5780638da5cb5b146102e157806395d89b4114610312578063a293d1e814610327578063a9059cbb14610357578063b5931f7c14610390578063cae9ca51146103c0578063d05c78da14610488578063d4ee1d90146104b8578063dc39d06d146104cd578063dd62ed3e14610506578063e6cb901314610541578063f2fde38b14610571575b600080fd5b34801561012257600080fd5b5061012b6105a4565b6040805160208082528351818301528351919283929083019185019080838360005b8381101561016557818101518382015260200161014d565b50505050905090810190601f1680156101925780820380516001836020036101000a031916815260200191505b509250505060405180910390f35b3480156101ac57600080fd5b506101d9600480360360408110156101c357600080fd5b50600160a060020a038135169060200135610632565b604080519115158252519081900360200190f35b3480156101f957600080fd5b50610202610699565b60408051918252519081900360200190f35b34801561022057600080fd5b506101d96004803603606081101561023757600080fd5b50600160a060020a038135811691602081013590911690604001356106cb565b34801561026357600080fd5b5061026c6107c4565b6040805160ff9092168252519081900360200190f35b34801561028e57600080fd5b506102026107cd565b3480156102a357600080fd5b50610202600480360360208110156102ba57600080fd5b5035600160a060020a03166107d3565b3480156102d657600080fd5b506102df6107ee565b005b3480156102ed57600080fd5b506102f6610876565b60408051600160a060020a039092168252519081900360200190f35b34801561031e57600080fd5b5061012b610885565b34801561033357600080fd5b506102026004803603604081101561034a57600080fd5b50803590602001356108dd565b34801561036357600080fd5b506101d96004803603604081101561037a57600080fd5b50600160a060020a0381351690602001356108f2565b34801561039c57600080fd5b50610202600480360360408110156103b357600080fd5b5080359060200135610996565b3480156103cc57600080fd5b506101d9600480360360608110156103e357600080fd5b600160a060020a038235169160208101359181019060608101604082013564010000000081111561041357600080fd5b82018360208201111561042557600080fd5b8035906020019184600183028401116401000000008311171561044757600080fd5b91908080601f0160208091040260200160405190810160405280939291908181526020018383808284376000920191909152509295506109b7945050505050565b34801561049457600080fd5b50610202600480360360408110156104ab57600080fd5b5080359060200135610b18565b3480156104c457600080fd5b506102f6610b3d565b3480156104d957600080fd5b506101d9600480360360408110156104f057600080fd5b50600160a060020a038135169060200135610b4c565b34801561051257600080fd5b506102026004803603604081101561052957600080fd5b50600160a060020a0381358116916020013516610c07565b34801561054d57600080fd5b506102026004803603604081101561056457600080fd5b5080359060200135610c32565b34801561057d57600080fd5b506102df6004803603602081101561059457600080fd5b5035600160a060020a0316610c42565b6003805460408051602060026001851615610100026000190190941693909304601f8101849004840282018401909252818152929183018282801561062a5780601f106105ff5761010080835404028352916020019161062a565b820191906000526020600020905b81548152906001019060200180831161060d57829003601f168201915b505050505081565b336000818152600760209081526040808320600160a060020a038716808552908352818420869055815186815291519394909390927f8c5be1e5ebec7d5bd14f71427d1e84f3dd0314c0f7b2291e5b200ac8c7c3b925928290030190a35060015b92915050565b6000805260066020527f54cdd369e4e8a8515e52ca72ec816c2101831ad1f18bf44102ed171459c9b4f8546005540390565b600160a060020a0383166000908152600660205260408120546106ee90836108dd565b600160a060020a038516600090815260066020908152604080832093909355600781528282203383529052205461072590836108dd565b600160a060020a0380861660009081526007602090815260408083203384528252808320949094559186168152600690915220546107639083610c32565b600160a060020a0380851660008181526006602090815260409182902094909455805186815290519193928816927fddf252ad1be2c89b69c2b068fc378daa952ba7f163c4a11628f55a4df523b3ef92918290030190a35060019392505050565b60045460ff1681565b60055481565b600160a060020a031660009081526006602052604090205490565b600154600160a060020a0316331461080557600080fd5b60015460008054604051600160a060020a0393841693909116917f8be0079c531659141344cd1fd0a4f28419497f9722a3daafe3b4186f6b6457e091a3600180546000805473ffffffffffffffffffffffffffffffffffffffff19908116600160a060020a03841617909155169055565b600054600160a060020a031681565b6002805460408051602060018416156101000260001901909316849004601f8101849004840282018401909252818152929183018282801561062a5780601f106105ff5761010080835404028352916020019161062a565b6000828211156108ec57600080fd5b50900390565b3360009081526006602052604081205461090c90836108dd565b3360009081526006602052604080822092909255600160a060020a038516815220546109389083610c32565b600160a060020a0384166000818152600660209081526040918290209390935580518581529051919233927fddf252ad1be2c89b69c2b068fc378daa952ba7f163c4a11628f55a4df523b3ef9281900390910190a350600192915050565b60008082116109a457600080fd5b81838115156109af57fe5b049392505050565b336000818152600760209081526040808320600160a060020a038816808552908352818420879055815187815291519394909390927f8c5be1e5ebec7d5bd14f71427d1e84f3dd0314c0f7b2291e5b200ac8c7c3b925928290030190a36040517f8f4ffcb10000000000000000000000000000000000000000000000000000000081523360048201818152602483018690523060448401819052608060648501908152865160848601528651600160a060020a038a1695638f4ffcb195948a94938a939192909160a490910190602085019080838360005b83811015610aa7578181015183820152602001610a8f565b50505050905090810190601f168015610ad45780820380516001836020036101000a031916815260200191505b5095505050505050600060405180830381600087803b158015610af657600080fd5b505af1158015610b0a573d6000803e3d6000fd5b506001979650505050505050565b818102821580610b325750818382811515610b2f57fe5b04145b151561069357600080fd5b600154600160a060020a031681565b60008054600160a060020a03163314610b6457600080fd5b60008054604080517fa9059cbb000000000000000000000000000000000000000000000000000000008152600160a060020a0392831660048201526024810186905290519186169263a9059cbb926044808401936020939083900390910190829087803b158015610bd457600080fd5b505af1158015610be8573d6000803e3d6000fd5b505050506040513d6020811015610bfe57600080fd5b50519392505050565b600160a060020a03918216600090815260076020908152604080832093909416825291909152205490565b8181018281101561069357600080fd5b600054600160a060020a03163314610c5957600080fd5b6001805473ffffffffffffffffffffffffffffffffffffffff1916600160a060020a039290921691909117905556fea165627a7a72305820839809576751319fe21681783b413401a01170b8f0831b7dd6735b25399026ce0029",
  "source": "pragma solidity ^0.5.0;\n\ncontract MasterPOC {\n\n  address[] public contracts;\n  address public lastContractAddress;\n  \n  event newProofClaimContract (\n      address contractAddress\n  );\n\n  constructor()\n      public\n  {\n  }\n\n  function getContractCount()\n      public\n      view\n      returns(uint contractCount)\n  {\n    return contracts.length;\n  }\n\n  function newProofClaim(string memory symbol, string memory name, address owner)\n      public\n      returns(bool)\n  {\n    uint supply = 100;\n    ProofClaim c = new ProofClaim(symbol, name, owner, supply);\n    contracts.push(address(c));\n    lastContractAddress = address(c);\n\n    emit newProofClaimContract(address(c));\n    return true;\n  }\n\n  function seeProofClaim(uint pos)\n      public\n      view\n      returns(address contractAddress)\n  {\n    return address(contracts[pos]);\n  }\n}\n\ncontract SafeMath {\nfunction safeAdd(uint a, uint b) public pure returns (uint c) {\n    c = a + b;\n    require(c >= a);\n}\nfunction safeSub(uint a, uint b) public pure returns (uint c) {\n    require(b <= a);\n    c = a - b;\n}\nfunction safeMul(uint a, uint b) public pure returns (uint c) {\n    c = a * b;\n    require(a == 0 || c / a == b);\n}\nfunction safeDiv(uint a, uint b) public pure returns (uint c) {\n    require(b > 0);\n    c = a / b;\n}\n}\n\ncontract ERC20Interface {\n\tfunction totalSupply() public view returns (uint);\n\tfunction balanceOf(address tokenOwner) public view returns (uint balance);\n\tfunction allowance(address tokenOwner, address spender) public view returns (uint remaining);\n\tfunction transfer(address to, uint tokens) public returns (bool success);\n\tfunction approve(address spender, uint tokens) public returns (bool success);\n\tfunction transferFrom(address from, address to, uint tokens) public returns (bool success);\n\n\tevent Transfer(address indexed from, address indexed to, uint tokens);\n\tevent Approval(address indexed tokenOwner, address indexed spender, uint tokens);\n}\n\ncontract ApproveAndCallFallBack {\n\tfunction receiveApproval(address from, uint256 tokens, address token, bytes memory data) public;\n}\n\ncontract Owned {\n\taddress public owner;\n\taddress public newOwner;\n\n\tevent OwnershipTransferred(address indexed _from, address indexed _to);\n\n\tconstructor() public {\n    \towner = msg.sender;\n\t}\n\n\tmodifier onlyOwner {\n    \trequire(msg.sender == owner);\n    \t_;\n\t}\n\n\tfunction transferOwnership(address _newOwner) public onlyOwner {\n    \tnewOwner = _newOwner;\n\t}\n\tfunction acceptOwnership() public {\n    \trequire(msg.sender == newOwner);\n    \temit OwnershipTransferred(owner, newOwner);\n    \towner = newOwner;\n    \tnewOwner = address(0);\n\t}\n}\n\ncontract ProofClaim is ERC20Interface, Owned, SafeMath {\n\tstring public symbol;\n\tstring public  name;\n\tuint8 public decimals;\n\tuint public _totalSupply;\n\n\tmapping(address => uint) balances;\n\tmapping(address => mapping(address => uint)) allowed;\n    \nconstructor(string memory _symbol, string memory _name, address _owner, uint _supply) public {\n    \tsymbol = _symbol;\n    \tname = _name;\n    \tdecimals = 18;\n    \t_totalSupply = _supply;\n    \tbalances[_owner] = _totalSupply;\n    \temit Transfer(address(0), _owner, _totalSupply);\n}\n\n\nfunction totalSupply() public view returns (uint) {\n    \treturn _totalSupply  - balances[address(0)];\n}\n\nfunction balanceOf(address tokenOwner) public view returns (uint balance) {\n    \treturn balances[tokenOwner];\n}\n\nfunction transfer(address to, uint tokens) public returns (bool success) {\n    \tbalances[msg.sender] = safeSub(balances[msg.sender], tokens);\n    \tbalances[to] = safeAdd(balances[to], tokens);\n    \temit Transfer(msg.sender, to, tokens);\n    \treturn true;\n}\n\nfunction approve(address spender, uint tokens) public returns (bool success) {\n    \tallowed[msg.sender][spender] = tokens;\n    \temit Approval(msg.sender, spender, tokens);\n    \treturn true;\n}\n\nfunction transferFrom(address from, address to, uint tokens) public returns (bool success) {\n    \tbalances[from] = safeSub(balances[from], tokens);\n    \tallowed[from][msg.sender] = safeSub(allowed[from][msg.sender], tokens);\n    \tbalances[to] = safeAdd(balances[to], tokens);\n    \temit Transfer(from, to, tokens);\n    \treturn true;\n}\n\nfunction allowance(address tokenOwner, address spender) public view returns (uint remaining) {\n    \treturn allowed[tokenOwner][spender];\n}\n\nfunction approveAndCall(address spender, uint tokens, bytes memory data) public returns (bool success) {\n    \tallowed[msg.sender][spender] = tokens;\n    \temit Approval(msg.sender, spender, tokens);\n    \tApproveAndCallFallBack(spender).receiveApproval(msg.sender, tokens, address(this), data);\n    \treturn true;\n}\n\nfunction () external payable {\n    \trevert();\n}\n\nfunction transferAnyERC20Token(address tokenAddress, uint tokens) public onlyOwner returns (bool success) {\n    \treturn ERC20Interface(tokenAddress).transfer(owner, tokens);\n\t}\n}",
  "sourcePath": "/home/josh/dev/income-share/contracts/MasterPOC.sol",
  "compiler": {
    "name": "solc",
    "version": "0.5.0+commit.1d4f565a.Emscripten.clang"
  },
  "schemaVersion": "3.0.8",
  "updatedAt": "2019-04-30T07:25:25.418Z",
  "devdoc": {
    "methods": {}
  },
  "userdoc": {
    "methods": {}
  }
}