{
  "contractName": "IncomeAssignment",
  "abi": [
    {
      "constant": true,
      "inputs": [
        {
          "name": "",
          "type": "address"
        }
      ],
      "name": "currAssignment",
      "outputs": [
        {
          "name": "",
          "type": "uint256"
        }
      ],
      "payable": false,
      "stateMutability": "view",
      "type": "function",
      "signature": "0xad7f761c"
    },
    {
      "constant": true,
      "inputs": [
        {
          "name": "",
          "type": "address"
        },
        {
          "name": "",
          "type": "uint256"
        }
      ],
      "name": "assignmentHistory",
      "outputs": [
        {
          "name": "assignor",
          "type": "address"
        },
        {
          "name": "assignee",
          "type": "address"
        },
        {
          "name": "priceInEth",
          "type": "uint256"
        },
        {
          "name": "numTransferred",
          "type": "uint256"
        },
        {
          "name": "confirmed",
          "type": "bool"
        }
      ],
      "payable": false,
      "stateMutability": "view",
      "type": "function",
      "signature": "0xea6556b8"
    },
    {
      "inputs": [
        {
          "name": "_pcTokenAddr",
          "type": "address"
        }
      ],
      "payable": false,
      "stateMutability": "nonpayable",
      "type": "constructor",
      "signature": "constructor"
    },
    {
      "payable": true,
      "stateMutability": "payable",
      "type": "fallback"
    },
    {
      "constant": false,
      "inputs": [
        {
          "name": "_contract",
          "type": "address"
        },
        {
          "name": "_assignor",
          "type": "address"
        },
        {
          "name": "_assignee",
          "type": "address"
        },
        {
          "name": "_priceInEth",
          "type": "uint256"
        },
        {
          "name": "_numTransferred",
          "type": "uint256"
        }
      ],
      "name": "recordAssignment",
      "outputs": [],
      "payable": false,
      "stateMutability": "nonpayable",
      "type": "function",
      "signature": "0x7eafd4cd"
    },
    {
      "constant": false,
      "inputs": [
        {
          "name": "_contract",
          "type": "address"
        },
        {
          "name": "_assignmentNum",
          "type": "uint256"
        }
      ],
      "name": "executeAssignment",
      "outputs": [],
      "payable": false,
      "stateMutability": "nonpayable",
      "type": "function",
      "signature": "0xcc69c2e6"
    },
    {
      "constant": false,
      "inputs": [
        {
          "name": "_addr",
          "type": "address"
        }
      ],
      "name": "getNumAssignments",
      "outputs": [
        {
          "name": "",
          "type": "uint256"
        }
      ],
      "payable": false,
      "stateMutability": "nonpayable",
      "type": "function",
      "signature": "0xe4b29c90"
    }
  ],
  "bytecode": "0x608060405234801561001057600080fd5b50604051602080610da08339810180604052602081101561003057600080fd5b810190808051906020019092919050505033600160006101000a81548173ffffffffffffffffffffffffffffffffffffffff021916908373ffffffffffffffffffffffffffffffffffffffff160217905550806000806101000a81548173ffffffffffffffffffffffffffffffffffffffff021916908373ffffffffffffffffffffffffffffffffffffffff16021790555050610cce806100d26000396000f3fe60806040526004361061006d576000357c0100000000000000000000000000000000000000000000000000000000900463ffffffff1680637eafd4cd1461006f578063ad7f761c14610114578063cc69c2e614610179578063e4b29c90146101d4578063ea6556b814610239575b005b34801561007b57600080fd5b50610112600480360360a081101561009257600080fd5b81019080803573ffffffffffffffffffffffffffffffffffffffff169060200190929190803573ffffffffffffffffffffffffffffffffffffffff169060200190929190803573ffffffffffffffffffffffffffffffffffffffff1690602001909291908035906020019092919080359060200190929190505050610320565b005b34801561012057600080fd5b506101636004803603602081101561013757600080fd5b81019080803573ffffffffffffffffffffffffffffffffffffffff169060200190929190505050610528565b6040518082815260200191505060405180910390f35b34801561018557600080fd5b506101d26004803603604081101561019c57600080fd5b81019080803573ffffffffffffffffffffffffffffffffffffffff16906020019092919080359060200190929190505050610540565b005b3480156101e057600080fd5b50610223600480360360208110156101f757600080fd5b81019080803573ffffffffffffffffffffffffffffffffffffffff169060200190929190505050610b6b565b6040518082815260200191505060405180910390f35b34801561024557600080fd5b506102926004803603604081101561025c57600080fd5b81019080803573ffffffffffffffffffffffffffffffffffffffff16906020019092919080359060200190929190505050610bb4565b604051808673ffffffffffffffffffffffffffffffffffffffff1673ffffffffffffffffffffffffffffffffffffffff1681526020018573ffffffffffffffffffffffffffffffffffffffff1673ffffffffffffffffffffffffffffffffffffffff168152602001848152602001838152602001821515151581526020019550505050505060405180910390f35b338073ffffffffffffffffffffffffffffffffffffffff163373ffffffffffffffffffffffffffffffffffffffff1614151561035b57600080fd5b610363610c44565b60a0604051908101604052808773ffffffffffffffffffffffffffffffffffffffff1681526020018673ffffffffffffffffffffffffffffffffffffffff16815260200185815260200184815260200160001515815250905080600260008973ffffffffffffffffffffffffffffffffffffffff1673ffffffffffffffffffffffffffffffffffffffff1681526020019081526020016000206000600360008b73ffffffffffffffffffffffffffffffffffffffff1673ffffffffffffffffffffffffffffffffffffffff168152602001908152602001600020600081548092919060010191905055815260200190815260200160002060008201518160000160006101000a81548173ffffffffffffffffffffffffffffffffffffffff021916908373ffffffffffffffffffffffffffffffffffffffff16021790555060208201518160010160006101000a81548173ffffffffffffffffffffffffffffffffffffffff021916908373ffffffffffffffffffffffffffffffffffffffff160217905550604082015181600201556060820151816003015560808201518160040160006101000a81548160ff02191690831515021790555090505050505050505050565b60036020528060005260406000206000915090505481565b60008060009054906101000a900473ffffffffffffffffffffffffffffffffffffffff1673ffffffffffffffffffffffffffffffffffffffff166370a08231336040518263ffffffff167c0100000000000000000000000000000000000000000000000000000000028152600401808273ffffffffffffffffffffffffffffffffffffffff1673ffffffffffffffffffffffffffffffffffffffff16815260200191505060206040518083038186803b1580156105fc57600080fd5b505afa158015610610573d6000803e3d6000fd5b505050506040513d602081101561062657600080fd5b81019080805190602001909291905050509050610641610c44565b600260008573ffffffffffffffffffffffffffffffffffffffff1673ffffffffffffffffffffffffffffffffffffffff168152602001908152602001600020600084815260200190815260200160002060a060405190810160405290816000820160009054906101000a900473ffffffffffffffffffffffffffffffffffffffff1673ffffffffffffffffffffffffffffffffffffffff1673ffffffffffffffffffffffffffffffffffffffff1681526020016001820160009054906101000a900473ffffffffffffffffffffffffffffffffffffffff1673ffffffffffffffffffffffffffffffffffffffff1673ffffffffffffffffffffffffffffffffffffffff16815260200160028201548152602001600382015481526020016004820160009054906101000a900460ff1615151515815250509050806000015173ffffffffffffffffffffffffffffffffffffffff163373ffffffffffffffffffffffffffffffffffffffff16141515610821576040517f08c379a00000000000000000000000000000000000000000000000000000000081526004018080602001828103825260198152602001807f6f6e6c792061737369676e6f722063616e20636f6e6669726d0000000000000081525060200191505060405180910390fd5b806060015182101515156108c3576040517f08c379a000000000000000000000000000000000000000000000000000000000815260040180806020018281038252602e8152602001807f61737369676e6f7220646f6573206e6f74206861766520656e6f75676820746f81526020017f6b656e7320746f2061737369676e00000000000000000000000000000000000081525060400191505060405180910390fd5b6000809054906101000a900473ffffffffffffffffffffffffffffffffffffffff1673ffffffffffffffffffffffffffffffffffffffff1663a9059cbb826020015183606001516040518363ffffffff167c0100000000000000000000000000000000000000000000000000000000028152600401808373ffffffffffffffffffffffffffffffffffffffff1673ffffffffffffffffffffffffffffffffffffffff16815260200182815260200192505050602060405180830381600087803b15801561098f57600080fd5b505af11580156109a3573d6000803e3d6000fd5b505050506040513d60208110156109b957600080fd5b81019080805190602001909291905050501515610a3e576040517f08c379a00000000000000000000000000000000000000000000000000000000081526004018080602001828103825260158152602001807f7472616e7366657220756e7375636365737366756c000000000000000000000081525060200191505060405180910390fd5b600181608001901515908115158152505080600260008673ffffffffffffffffffffffffffffffffffffffff1673ffffffffffffffffffffffffffffffffffffffff168152602001908152602001600020600085815260200190815260200160002060008201518160000160006101000a81548173ffffffffffffffffffffffffffffffffffffffff021916908373ffffffffffffffffffffffffffffffffffffffff16021790555060208201518160010160006101000a81548173ffffffffffffffffffffffffffffffffffffffff021916908373ffffffffffffffffffffffffffffffffffffffff160217905550604082015181600201556060820151816003015560808201518160040160006101000a81548160ff02191690831515021790555090505050505050565b6000600360008373ffffffffffffffffffffffffffffffffffffffff1673ffffffffffffffffffffffffffffffffffffffff168152602001908152602001600020549050919050565b6002602052816000526040600020602052806000526040600020600091509150508060000160009054906101000a900473ffffffffffffffffffffffffffffffffffffffff16908060010160009054906101000a900473ffffffffffffffffffffffffffffffffffffffff16908060020154908060030154908060040160009054906101000a900460ff16905085565b60a060405190810160405280600073ffffffffffffffffffffffffffffffffffffffff168152602001600073ffffffffffffffffffffffffffffffffffffffff1681526020016000815260200160008152602001600015158152509056fea165627a7a7230582006e0c7475775d1afbbf0cd27c6d32d32439e0207502bca7eefd463e2599fdc600029",
  "source": "pragma solidity ^0.5.0;\n\ncontract IncomeAssignment {\n\n  ProofClaim pcToken;\n\n  // @notice Assignment defines details of an assignment\n  struct Assignment {\n    address assignor;\n    address assignee;\n    uint priceInEth;\n    uint numTransferred;\n    bool confirmed;\n  }\n\n  address owner;\n\n  // @notice ERC20 address -> Assignment number -> Assignment\n  mapping (address => mapping(uint => Assignment)) public assignmentHistory;\n\n  // @notice ERC20 address -> Assignment index (defaults to 0)\n  mapping (address => uint) public currAssignment; \n\n  constructor(address _pcTokenAddr) public {\n    owner = msg.sender;\n    pcToken = ProofClaim(_pcTokenAddr);\n  }\n  \n  modifier onlyOwner(address _owner) {\n    require (msg.sender == _owner);\n    _;\n  }\n\n  function recordAssignment(\n    address _contract, \n    address _assignor, \n    address _assignee, \n    uint _priceInEth, \n    uint _numTransferred) public onlyOwner (msg.sender) {\n    Assignment memory _assignment = Assignment({\n      assignor: _assignor,\n      assignee: _assignee,\n      priceInEth: _priceInEth,\n      numTransferred: _numTransferred,\n      confirmed: false\n    });\n    \n    assignmentHistory[_contract][currAssignment[_contract]++] = _assignment;\n  }\n\n  function () external payable { }\n\n  function executeAssignment(address _contract, uint _assignmentNum) public {\n\n    uint assignorTokens = pcToken.balanceOf(msg.sender);\n    Assignment memory _assignment = assignmentHistory[_contract][_assignmentNum];\n    require (msg.sender == _assignment.assignor, \"only assignor can confirm\");\n    require (assignorTokens >= _assignment.numTransferred, \"assignor does not have enough tokens to assign\");\n    require(pcToken.transfer(_assignment.assignee, _assignment.numTransferred), \"transfer unsuccessful\");\n    _assignment.confirmed = true;   \n\n    // Save the record of the assignment\n    assignmentHistory[_contract][_assignmentNum] = _assignment; \n  }\n\n  function getNumAssignments(address _addr) public returns (uint) {\n    return currAssignment[_addr];\n  }\n}\n\ncontract ProofClaim {\n  \n  function balanceOf(address tokenOwner) public view returns (uint balance) {}\n    \t\n  function transfer(address to, uint tokens) public returns (bool success) {}\n}",
  "sourcePath": "/home/josh/dev/income-share/contracts/IncomeAssignment.sol",
  "compiler": {
    "name": "solc",
    "version": "0.5.0+commit.1d4f565a.Emscripten.clang"
  },
  "schemaVersion": "3.0.0",
  "updatedAt": "2019-04-19T04:46:51.021Z",
  "devdoc": {
    "methods": {}
  },
  "userdoc": {
    "methods": {}
  }
}