{
  "contractName": "IncomeAssignment",
  "abi": [
    {
      "constant": true,
      "inputs": [
        {
          "name": "",
          "type": "address"
        }
      ],
      "name": "currAssignment",
      "outputs": [
        {
          "name": "",
          "type": "uint256"
        }
      ],
      "payable": false,
      "stateMutability": "view",
      "type": "function"
    },
    {
      "constant": true,
      "inputs": [
        {
          "name": "",
          "type": "address"
        },
        {
          "name": "",
          "type": "uint256"
        }
      ],
      "name": "assignmentHistory",
      "outputs": [
        {
          "name": "seller",
          "type": "address"
        },
        {
          "name": "buyer",
          "type": "address"
        },
        {
          "name": "price",
          "type": "uint256"
        },
        {
          "name": "numTransferred",
          "type": "uint256"
        },
        {
          "name": "confirmed",
          "type": "bool"
        }
      ],
      "payable": false,
      "stateMutability": "view",
      "type": "function"
    },
    {
      "inputs": [],
      "payable": false,
      "stateMutability": "nonpayable",
      "type": "constructor"
    },
    {
      "payable": true,
      "stateMutability": "payable",
      "type": "fallback"
    },
    {
      "anonymous": false,
      "inputs": [
        {
          "indexed": false,
          "name": "_contract",
          "type": "address"
        },
        {
          "indexed": false,
          "name": "contractNo",
          "type": "uint256"
        },
        {
          "indexed": false,
          "name": "seller",
          "type": "address"
        },
        {
          "indexed": false,
          "name": "buyer",
          "type": "address"
        },
        {
          "indexed": false,
          "name": "priceInEth",
          "type": "uint256"
        },
        {
          "indexed": false,
          "name": "numTransferred",
          "type": "uint256"
        }
      ],
      "name": "AssignmentExecuted",
      "type": "event"
    },
    {
      "constant": false,
      "inputs": [
        {
          "name": "_contract",
          "type": "address"
        },
        {
          "name": "_seller",
          "type": "address"
        },
        {
          "name": "_buyer",
          "type": "address"
        },
        {
          "name": "_price",
          "type": "uint256"
        },
        {
          "name": "_numTransferred",
          "type": "uint256"
        }
      ],
      "name": "recordAssignment",
      "outputs": [],
      "payable": false,
      "stateMutability": "nonpayable",
      "type": "function"
    },
    {
      "constant": false,
      "inputs": [
        {
          "name": "_contract",
          "type": "address"
        },
        {
          "name": "_assignmentNum",
          "type": "uint256"
        }
      ],
      "name": "executeAssignment",
      "outputs": [],
      "payable": false,
      "stateMutability": "nonpayable",
      "type": "function"
    },
    {
      "constant": true,
      "inputs": [
        {
          "name": "_contract",
          "type": "address"
        }
      ],
      "name": "getNumAssignments",
      "outputs": [
        {
          "name": "",
          "type": "uint256"
        }
      ],
      "payable": false,
      "stateMutability": "view",
      "type": "function"
    },
    {
      "constant": true,
      "inputs": [
        {
          "name": "_contract",
          "type": "address"
        },
        {
          "name": "_assignmentNum",
          "type": "uint256"
        }
      ],
      "name": "getAssignment",
      "outputs": [
        {
          "name": "seller",
          "type": "address"
        },
        {
          "name": "buyer",
          "type": "address"
        },
        {
          "name": "price",
          "type": "uint256"
        },
        {
          "name": "numTransferred",
          "type": "uint256"
        },
        {
          "name": "confirmed",
          "type": "bool"
        }
      ],
      "payable": false,
      "stateMutability": "view",
      "type": "function"
    }
  ],
  "bytecode": "0x608060405234801561001057600080fd5b50610917806100206000396000f3fe6080604052600436106100775763ffffffff7c01000000000000000000000000000000000000000000000000000000006000350416637eafd4cd811461007957806391c2dae8146100c8578063ad7f761c1461013a578063cc69c2e61461017f578063e4b29c90146101b8578063ea6556b8146101eb575b005b34801561008557600080fd5b50610077600480360360a081101561009c57600080fd5b50600160a060020a03813581169160208101358216916040820135169060608101359060800135610224565b3480156100d457600080fd5b50610101600480360360408110156100eb57600080fd5b50600160a060020a038135169060200135610409565b60408051600160a060020a0396871681529490951660208501528385019290925260608301521515608082015290519081900360a00190f35b34801561014657600080fd5b5061016d6004803603602081101561015d57600080fd5b5035600160a060020a0316610494565b60408051918252519081900360200190f35b34801561018b57600080fd5b50610077600480360360408110156101a257600080fd5b50600160a060020a0381351690602001356104a6565b3480156101c457600080fd5b5061016d600480360360208110156101db57600080fd5b5035600160a060020a031661085b565b3480156101f757600080fd5b506101016004803603604081101561020e57600080fd5b50600160a060020a038135169060200135610876565b61022c6108bd565b60a06040519081016040528086600160a060020a0316815260200185600160a060020a0316815260200184815260200183815260200160001515815250905060006002600088600160a060020a0316600160a060020a031681526020019081526020016000206000815480929190600101919050559050816001600089600160a060020a0316600160a060020a03168152602001908152602001600020600083815260200190815260200160002060008201518160000160006101000a815481600160a060020a030219169083600160a060020a0316021790555060208201518160010160006101000a815481600160a060020a030219169083600160a060020a03160217905550604082015181600201556060820151816003015560808201518160040160006101000a81548160ff0219169083151502179055509050507f54faa0d042c6c21fadd1baddec5312dff997e4bae12785e028fca2b9831436018782888888886040518087600160a060020a0316600160a060020a0316815260200186815260200185600160a060020a0316600160a060020a0316815260200184600160a060020a0316600160a060020a03168152602001838152602001828152602001965050505050505060405180910390a150505050505050565b60008060008060006104196108bd565b50505050600160a060020a03938416600090815260016020818152604080842096845295815291859020855160a0810187528154881680825292820154909716928701839052600281015495870186905260038101546060880181905260049091015460ff1615156080909701879052909691959093509150565b60026020526000908152604090205481565b604080517f70a0823100000000000000000000000000000000000000000000000000000000815233600482015290518391600091600160a060020a038416916370a08231916024808301926020929190829003018186803b15801561050a57600080fd5b505afa15801561051e573d6000803e3d6000fd5b505050506040513d602081101561053457600080fd5b505190506105406108bd565b50600160a060020a038085166000908152600160208181526040808420888552825292839020835160a0810185528154861680825293820154909516918501919091526002810154928401929092526003820154606084015260049091015460ff1615156080830152331461061657604080517f08c379a000000000000000000000000000000000000000000000000000000000815260206004820152601760248201527f6f6e6c792073656c6c65722063616e20636f6e6669726d000000000000000000604482015290519081900360640190fd5b60608101518210156106af57604080517f08c379a000000000000000000000000000000000000000000000000000000000815260206004820152602c60248201527f73656c6c657220646f6573206e6f74206861766520656e6f75676820746f6b6560448201527f6e7320746f2061737369676e0000000000000000000000000000000000000000606482015290519081900360840190fd5b80516020808301516060840151604080517f23b872dd000000000000000000000000000000000000000000000000000000008152600160a060020a0395861660048201529285166024840152604483019190915251928616926323b872dd926064808401939192918290030181600087803b15801561072d57600080fd5b505af1158015610741573d6000803e3d6000fd5b505050506040513d602081101561075757600080fd5b505115156107c657604080517f08c379a000000000000000000000000000000000000000000000000000000000815260206004820152601560248201527f7472616e7366657220756e7375636365737366756c0000000000000000000000604482015290519081900360640190fd5b600160808201818152600160a060020a03968716600090815260208381526040808320988352978152908790208451815473ffffffffffffffffffffffffffffffffffffffff19908116918b1691909117825591850151938101805490921693909816929092179091559381015160028601556060015160038501555050516004909101805460ff1916911515919091179055565b600160a060020a031660009081526002602052604090205490565b6001602081815260009384526040808520909152918352912080549181015460028201546003830154600490930154600160a060020a039485169490921692909160ff1685565b6040805160a0810182526000808252602082018190529181018290526060810182905260808101919091529056fea165627a7a72305820968a41b917f253e0dd853a10e340dc2cb2f8187e8d42c4899e3f2be4c3a17fec0029",
  "source": "pragma solidity ^0.5.0;\n\n/**\n * @title IncomeAssignment\n * @notice IncomeAssignment controls the assignment of income share tokens\n **/\ncontract IncomeAssignment {\n\n  // @notice Assignment defines the details of an assignment\n  struct Assignment {\n    address seller;\n    address buyer;\n    uint price;\n    uint numTransferred;\n    bool confirmed;\n  }\n\n  // @notice Event emitting Assignment details upon execution \n  event AssignmentExecuted (\n    address _contract,\n    uint contractNo,\n    address seller,\n    address buyer,\n    uint priceInEth,\n    uint numTransferred\n  );\n\n  // Would be nice to have OL address passed into constructor for modifier use\n  address openLaw;\n\n  // @notice ERC20 address -> Assignment number -> Assignment\n  mapping (address => mapping(uint => Assignment)) public assignmentHistory;\n\n  // @notice ERC20 address -> Assignment index (defaults to 0)\n  mapping (address => uint) public currAssignment; \n\n  constructor() public {\n  }\n\n   /**\n   * @notice recordAssignment creates a new assignment \n   * @param _contract - the address of the tokenized ERC20 income shares \n   * @param _seller - address assigning tokens\n   * @param _buyer - address receiving tokens\n   * @param _price - price the buyer pays in Wei\n   * @param _numTransferred - number of transferred shares\n   */\n  function recordAssignment(\n    address _contract, \n    address _seller, \n    address _buyer, \n    uint _price, \n    uint _numTransferred) public {\n    Assignment memory _assignment = Assignment({\n      seller: _seller,\n      buyer: _buyer,\n      price: _price,\n      numTransferred: _numTransferred,\n      confirmed: false\n    });\n\n    uint _assignmentNo = currAssignment[_contract]++;\n    \n    assignmentHistory[_contract][_assignmentNo] = _assignment;\n\n    emit AssignmentExecuted(_contract, _assignmentNo, _seller, _buyer, _price, _numTransferred);\n  }\n\n  function () external payable { }\n\n/**\n   * @notice executeAssignment is called by an seller to effect token transfer after receiving payment \n   * @param _contract - the address of the tokenized ERC20 income shares \n   * @param _assignmentNum - the particular Assignment's index for retrieval \n   */\n  function executeAssignment(address _contract, uint _assignmentNum) public {\n\n    ProofClaim pcToken = ProofClaim(_contract);\n\n    uint sellerTokens = pcToken.balanceOf(msg.sender);\n    \n    Assignment memory _assignment = assignmentHistory[_contract][_assignmentNum];\n\n    require (msg.sender == _assignment.seller, \"only seller can confirm\");\n    require (sellerTokens >= _assignment.numTransferred, \"seller does not have enough tokens to assign\");\n\n    // transfer pre-approved token balance from seller to buyer by calling Token smart contract\n    require(pcToken.transferFrom(_assignment.seller, _assignment.buyer, _assignment.numTransferred), \"transfer unsuccessful\");\n\n    _assignment.confirmed = true;\n\n    // update the Assignment w/ confirmed = true\n    assignmentHistory[_contract][_assignmentNum] = _assignment; \n  }\n\n/**\n   * @notice getNumAssignments returns the number of assignments made for a token  \n   * @param _contract - the address of the tokenized ERC20 income shares \n   */\n  function getNumAssignments(address _contract) public view returns (uint) {\n    return currAssignment[_contract];\n  }\n\n/**\n   * @notice getAssignment returns the details of an Assignment \n   * @param _contract - the address of the tokenized ERC20 income shares \n   * @param _assignmentNum - the particular Assignment's index for retrieval \n   */\n  function getAssignment(address _contract, uint _assignmentNum) public view returns (  \n    address seller,\n    address buyer,\n    uint price,\n    uint numTransferred,\n    bool confirmed) {\n    \n    Assignment memory _assignment = assignmentHistory[_contract][_assignmentNum];\n    seller = _assignment.seller;\n    buyer = _assignment.buyer;\n    price = _assignment.price;\n    numTransferred = _assignment.numTransferred;\n    confirmed = _assignment.confirmed;\n  }    \n}\n\n/**\n * @title ProofClaim\n * @notice Interface of ProofClaim ERC20 token to call its functions \n **/\ncontract ProofClaim {\n  \n  function totalSupply() public view returns (uint);\n  function balanceOf(address tokenOwner) public view returns (uint balance);\n  function allowance(address tokenOwner, address spender) public view returns (uint remaining);\n  function transfer(address to, uint tokens) public returns (bool success);\n  function approve(address spender, uint tokens) public returns (bool success);\n  function transferFrom(address from, address to, uint tokens) public returns (bool success);\n\n  event Transfer(address indexed from, address indexed to, uint tokens);\n  event Approval(address indexed tokenOwner, address indexed spender, uint tokens);\n}",
  "sourcePath": "/home/josh/dev/income-share/contracts/IncomeAssignment.sol",
  "compiler": {
    "name": "solc",
    "version": "0.5.0+commit.1d4f565a.Emscripten.clang"
  },
  "schemaVersion": "3.0.8",
  "updatedAt": "2019-05-02T04:00:47.383Z",
  "devdoc": {
    "methods": {
      "executeAssignment(address,uint256)": {
        "params": {
          "_assignmentNum": "- the particular Assignment's index for retrieval ",
          "_contract": "- the address of the tokenized ERC20 income shares "
        }
      },
      "getAssignment(address,uint256)": {
        "params": {
          "_assignmentNum": "- the particular Assignment's index for retrieval ",
          "_contract": "- the address of the tokenized ERC20 income shares "
        }
      },
      "getNumAssignments(address)": {
        "params": {
          "_contract": "- the address of the tokenized ERC20 income shares "
        }
      },
      "recordAssignment(address,address,address,uint256,uint256)": {
        "params": {
          "_buyer": "- address receiving tokens",
          "_contract": "- the address of the tokenized ERC20 income shares ",
          "_numTransferred": "- number of transferred shares",
          "_price": "- price the buyer pays in Wei",
          "_seller": "- address assigning tokens"
        }
      }
    },
    "title": "IncomeAssignment"
  },
  "userdoc": {
    "methods": {
      "executeAssignment(address,uint256)": {
        "notice": "executeAssignment is called by an seller to effect token transfer after receiving payment "
      },
      "getAssignment(address,uint256)": {
        "notice": "getAssignment returns the details of an Assignment "
      },
      "getNumAssignments(address)": {
        "notice": "getNumAssignments returns the number of assignments made for a token  "
      },
      "recordAssignment(address,address,address,uint256,uint256)": {
        "notice": "recordAssignment creates a new assignment "
      }
    },
    "notice": "IncomeAssignment controls the assignment of income share tokens*"
  }
}