{
  "contractName": "MasterPOC",
  "abi": [
    {
      "constant": true,
      "inputs": [
        {
          "name": "",
          "type": "address"
        },
        {
          "name": "",
          "type": "address"
        }
      ],
      "name": "tokensByOwner",
      "outputs": [
        {
          "name": "",
          "type": "uint256"
        }
      ],
      "payable": false,
      "stateMutability": "view",
      "type": "function",
      "signature": "0x0206f633"
    },
    {
      "constant": true,
      "inputs": [],
      "name": "lastContractAddress",
      "outputs": [
        {
          "name": "",
          "type": "address"
        }
      ],
      "payable": false,
      "stateMutability": "view",
      "type": "function",
      "signature": "0x32709738"
    },
    {
      "constant": true,
      "inputs": [
        {
          "name": "",
          "type": "uint256"
        }
      ],
      "name": "contracts",
      "outputs": [
        {
          "name": "",
          "type": "address"
        }
      ],
      "payable": false,
      "stateMutability": "view",
      "type": "function",
      "signature": "0x474da79a"
    },
    {
      "inputs": [],
      "payable": false,
      "stateMutability": "nonpayable",
      "type": "constructor",
      "signature": "constructor"
    },
    {
      "anonymous": false,
      "inputs": [
        {
          "indexed": false,
          "name": "assignor",
          "type": "address"
        },
        {
          "indexed": false,
          "name": "assignee",
          "type": "address"
        },
        {
          "indexed": false,
          "name": "priceInEth",
          "type": "uint256"
        },
        {
          "indexed": false,
          "name": "numTransferred",
          "type": "uint256"
        }
      ],
      "name": "AssignmentExecuted",
      "type": "event",
      "signature": "0xfce00b2a970d29b96f6f5d1f92f6586832bb42786723d399a9844556c3d253c6"
    },
    {
      "anonymous": false,
      "inputs": [
        {
          "indexed": false,
          "name": "contractAddress",
          "type": "address"
        }
      ],
      "name": "newProofClaimContract",
      "type": "event",
      "signature": "0x5ac718467c8c5cd4a3b839f07f301a62ea058e5fa9c1e524b95f3cd9884d1c17"
    },
    {
      "constant": true,
      "inputs": [],
      "name": "getContractCount",
      "outputs": [
        {
          "name": "contractCount",
          "type": "uint256"
        }
      ],
      "payable": false,
      "stateMutability": "view",
      "type": "function",
      "signature": "0x9399869d"
    },
    {
      "constant": false,
      "inputs": [
        {
          "name": "symbol",
          "type": "string"
        },
        {
          "name": "name",
          "type": "string"
        }
      ],
      "name": "newProofClaim",
      "outputs": [
        {
          "name": "newContract",
          "type": "address"
        }
      ],
      "payable": false,
      "stateMutability": "nonpayable",
      "type": "function",
      "signature": "0xc5b57093"
    },
    {
      "constant": true,
      "inputs": [
        {
          "name": "pos",
          "type": "uint256"
        }
      ],
      "name": "seeProofClaim",
      "outputs": [
        {
          "name": "contractAddress",
          "type": "address"
        }
      ],
      "payable": false,
      "stateMutability": "view",
      "type": "function",
      "signature": "0xd413fdf3"
    }
  ],
  "bytecode": "0x608060405234801561001057600080fd5b50336000806101000a81548173ffffffffffffffffffffffffffffffffffffffff021916908373ffffffffffffffffffffffffffffffffffffffff1602179055506122e1806100606000396000f3fe608060405260043610610078576000357c0100000000000000000000000000000000000000000000000000000000900463ffffffff1680630206f6331461007d5780633270973814610102578063474da79a146101595780639399869d146101d4578063c5b57093146101ff578063d413fdf31461039e575b600080fd5b34801561008957600080fd5b506100ec600480360360408110156100a057600080fd5b81019080803573ffffffffffffffffffffffffffffffffffffffff169060200190929190803573ffffffffffffffffffffffffffffffffffffffff169060200190929190505050610419565b6040518082815260200191505060405180910390f35b34801561010e57600080fd5b5061011761043e565b604051808273ffffffffffffffffffffffffffffffffffffffff1673ffffffffffffffffffffffffffffffffffffffff16815260200191505060405180910390f35b34801561016557600080fd5b506101926004803603602081101561017c57600080fd5b8101908080359060200190929190505050610464565b604051808273ffffffffffffffffffffffffffffffffffffffff1673ffffffffffffffffffffffffffffffffffffffff16815260200191505060405180910390f35b3480156101e057600080fd5b506101e96104a2565b6040518082815260200191505060405180910390f35b34801561020b57600080fd5b5061035c6004803603604081101561022257600080fd5b810190808035906020019064010000000081111561023f57600080fd5b82018360208201111561025157600080fd5b8035906020019184600183028401116401000000008311171561027357600080fd5b91908080601f016020809104026020016040519081016040528093929190818152602001838380828437600081840152601f19601f820116905080830192505050505050509192919290803590602001906401000000008111156102d657600080fd5b8201836020820111156102e857600080fd5b8035906020019184600183028401116401000000008311171561030a57600080fd5b91908080601f016020809104026020016040519081016040528093929190818152602001838380828437600081840152601f19601f8201169050808301925050505050505091929192905050506104af565b604051808273ffffffffffffffffffffffffffffffffffffffff1673ffffffffffffffffffffffffffffffffffffffff16815260200191505060405180910390f35b3480156103aa57600080fd5b506103d7600480360360208110156103c157600080fd5b81019080803590602001909291905050506107d8565b604051808273ffffffffffffffffffffffffffffffffffffffff1673ffffffffffffffffffffffffffffffffffffffff16815260200191505060405180910390f35b6001602052816000526040600020602052806000526040600020600091509150505481565b600360009054906101000a900473ffffffffffffffffffffffffffffffffffffffff1681565b60028181548110151561047357fe5b906000526020600020016000915054906101000a900473ffffffffffffffffffffffffffffffffffffffff1681565b6000600280549050905090565b60008068056bc75e2d631000009050600084846000809054906101000a900473ffffffffffffffffffffffffffffffffffffffff16846104ed61081b565b8080602001806020018573ffffffffffffffffffffffffffffffffffffffff1673ffffffffffffffffffffffffffffffffffffffff168152602001848152602001838103835287818151815260200191508051906020019080838360005b8381101561056657808201518184015260208101905061054b565b50505050905090810190601f1680156105935780820380516001836020036101000a031916815260200191505b50838103825286818151815260200191508051906020019080838360005b838110156105cc5780820151818401526020810190506105b1565b50505050905090810190601f1680156105f95780820380516001836020036101000a031916815260200191505b509650505050505050604051809103906000f08015801561061e573d6000803e3d6000fd5b50905060028190806001815401808255809150509060018203906000526020600020016000909192909190916101000a81548173ffffffffffffffffffffffffffffffffffffffff021916908373ffffffffffffffffffffffffffffffffffffffff1602179055505080600360006101000a81548173ffffffffffffffffffffffffffffffffffffffff021916908373ffffffffffffffffffffffffffffffffffffffff16021790555081600160008373ffffffffffffffffffffffffffffffffffffffff1673ffffffffffffffffffffffffffffffffffffffff16815260200190815260200160002060008060009054906101000a900473ffffffffffffffffffffffffffffffffffffffff1673ffffffffffffffffffffffffffffffffffffffff1673ffffffffffffffffffffffffffffffffffffffff168152602001908152602001600020819055507f5ac718467c8c5cd4a3b839f07f301a62ea058e5fa9c1e524b95f3cd9884d1c1781604051808273ffffffffffffffffffffffffffffffffffffffff1673ffffffffffffffffffffffffffffffffffffffff16815260200191505060405180910390a1809250505092915050565b60006002828154811015156107e957fe5b9060005260206000200160009054906101000a900473ffffffffffffffffffffffffffffffffffffffff169050919050565b604051611a8a8061082c8339019056fe60806040523480156200001157600080fd5b5060405162001a8a38038062001a8a833981018060405260808110156200003757600080fd5b8101908080516401000000008111156200005057600080fd5b828101905060208101848111156200006757600080fd5b81518560018202830111640100000000821117156200008557600080fd5b50509291906020018051640100000000811115620000a257600080fd5b82810190506020810184811115620000b957600080fd5b8151856001820283011164010000000082111715620000d757600080fd5b50509291906020018051906020019092919080519060200190929190505050336000806101000a81548173ffffffffffffffffffffffffffffffffffffffff021916908373ffffffffffffffffffffffffffffffffffffffff16021790555083600290805190602001906200014e92919062000243565b5082600390805190602001906200016792919062000243565b506012600460006101000a81548160ff021916908360ff16021790555080600581905550600554600660008473ffffffffffffffffffffffffffffffffffffffff1673ffffffffffffffffffffffffffffffffffffffff168152602001908152602001600020819055508173ffffffffffffffffffffffffffffffffffffffff16600073ffffffffffffffffffffffffffffffffffffffff167fddf252ad1be2c89b69c2b068fc378daa952ba7f163c4a11628f55a4df523b3ef6005546040518082815260200191505060405180910390a350505050620002f2565b828054600181600116156101000203166002900490600052602060002090601f016020900481019282601f106200028657805160ff1916838001178555620002b7565b82800160010185558215620002b7579182015b82811115620002b657825182559160200191906001019062000299565b5b509050620002c69190620002ca565b5090565b620002ef91905b80821115620002eb576000816000905550600101620002d1565b5090565b90565b61178880620003026000396000f3fe608060405260043610610112576000357c0100000000000000000000000000000000000000000000000000000000900463ffffffff16806306fdde0314610117578063095ea7b3146101a757806318160ddd1461021a57806323b872dd14610245578063313ce567146102d85780633eaaf86b1461030957806370a082311461033457806379ba5097146103995780638da5cb5b146103b057806395d89b4114610407578063a293d1e814610497578063a9059cbb146104f0578063b5931f7c14610563578063cae9ca51146105bc578063d05c78da146106c6578063d4ee1d901461071f578063dc39d06d14610776578063dd62ed3e146107e9578063e6cb90131461086e578063f2fde38b146108c7575b600080fd5b34801561012357600080fd5b5061012c610918565b6040518080602001828103825283818151815260200191508051906020019080838360005b8381101561016c578082015181840152602081019050610151565b50505050905090810190601f1680156101995780820380516001836020036101000a031916815260200191505b509250505060405180910390f35b3480156101b357600080fd5b50610200600480360360408110156101ca57600080fd5b81019080803573ffffffffffffffffffffffffffffffffffffffff169060200190929190803590602001909291905050506109b6565b604051808215151515815260200191505060405180910390f35b34801561022657600080fd5b5061022f610aa8565b6040518082815260200191505060405180910390f35b34801561025157600080fd5b506102be6004803603606081101561026857600080fd5b81019080803573ffffffffffffffffffffffffffffffffffffffff169060200190929190803573ffffffffffffffffffffffffffffffffffffffff16906020019092919080359060200190929190505050610af3565b604051808215151515815260200191505060405180910390f35b3480156102e457600080fd5b506102ed610d83565b604051808260ff1660ff16815260200191505060405180910390f35b34801561031557600080fd5b5061031e610d96565b6040518082815260200191505060405180910390f35b34801561034057600080fd5b506103836004803603602081101561035757600080fd5b81019080803573ffffffffffffffffffffffffffffffffffffffff169060200190929190505050610d9c565b6040518082815260200191505060405180910390f35b3480156103a557600080fd5b506103ae610de5565b005b3480156103bc57600080fd5b506103c5610f84565b604051808273ffffffffffffffffffffffffffffffffffffffff1673ffffffffffffffffffffffffffffffffffffffff16815260200191505060405180910390f35b34801561041357600080fd5b5061041c610fa9565b6040518080602001828103825283818151815260200191508051906020019080838360005b8381101561045c578082015181840152602081019050610441565b50505050905090810190601f1680156104895780820380516001836020036101000a031916815260200191505b509250505060405180910390f35b3480156104a357600080fd5b506104da600480360360408110156104ba57600080fd5b810190808035906020019092919080359060200190929190505050611047565b6040518082815260200191505060405180910390f35b3480156104fc57600080fd5b506105496004803603604081101561051357600080fd5b81019080803573ffffffffffffffffffffffffffffffffffffffff16906020019092919080359060200190929190505050611063565b604051808215151515815260200191505060405180910390f35b34801561056f57600080fd5b506105a66004803603604081101561058657600080fd5b8101908080359060200190929190803590602001909291905050506111ec565b6040518082815260200191505060405180910390f35b3480156105c857600080fd5b506106ac600480360360608110156105df57600080fd5b81019080803573ffffffffffffffffffffffffffffffffffffffff169060200190929190803590602001909291908035906020019064010000000081111561062657600080fd5b82018360208201111561063857600080fd5b8035906020019184600183028401116401000000008311171561065a57600080fd5b91908080601f016020809104026020016040519081016040528093929190818152602001838380828437600081840152601f19601f820116905080830192505050505050509192919290505050611210565b604051808215151515815260200191505060405180910390f35b3480156106d257600080fd5b50610709600480360360408110156106e957600080fd5b81019080803590602001909291908035906020019092919050505061145f565b6040518082815260200191505060405180910390f35b34801561072b57600080fd5b50610734611490565b604051808273ffffffffffffffffffffffffffffffffffffffff1673ffffffffffffffffffffffffffffffffffffffff16815260200191505060405180910390f35b34801561078257600080fd5b506107cf6004803603604081101561079957600080fd5b81019080803573ffffffffffffffffffffffffffffffffffffffff169060200190929190803590602001909291905050506114b6565b604051808215151515815260200191505060405180910390f35b3480156107f557600080fd5b506108586004803603604081101561080c57600080fd5b81019080803573ffffffffffffffffffffffffffffffffffffffff169060200190929190803573ffffffffffffffffffffffffffffffffffffffff16906020019092919050505061161a565b6040518082815260200191505060405180910390f35b34801561087a57600080fd5b506108b16004803603604081101561089157600080fd5b8101908080359060200190929190803590602001909291905050506116a1565b6040518082815260200191505060405180910390f35b3480156108d357600080fd5b50610916600480360360208110156108ea57600080fd5b81019080803573ffffffffffffffffffffffffffffffffffffffff1690602001909291905050506116bd565b005b60038054600181600116156101000203166002900480601f0160208091040260200160405190810160405280929190818152602001828054600181600116156101000203166002900480156109ae5780601f10610983576101008083540402835291602001916109ae565b820191906000526020600020905b81548152906001019060200180831161099157829003601f168201915b505050505081565b600081600760003373ffffffffffffffffffffffffffffffffffffffff1673ffffffffffffffffffffffffffffffffffffffff16815260200190815260200160002060008573ffffffffffffffffffffffffffffffffffffffff1673ffffffffffffffffffffffffffffffffffffffff168152602001908152602001600020819055508273ffffffffffffffffffffffffffffffffffffffff163373ffffffffffffffffffffffffffffffffffffffff167f8c5be1e5ebec7d5bd14f71427d1e84f3dd0314c0f7b2291e5b200ac8c7c3b925846040518082815260200191505060405180910390a36001905092915050565b6000600660008073ffffffffffffffffffffffffffffffffffffffff1673ffffffffffffffffffffffffffffffffffffffff1681526020019081526020016000205460055403905090565b6000610b3e600660008673ffffffffffffffffffffffffffffffffffffffff1673ffffffffffffffffffffffffffffffffffffffff1681526020019081526020016000205483611047565b600660008673ffffffffffffffffffffffffffffffffffffffff1673ffffffffffffffffffffffffffffffffffffffff16815260200190815260200160002081905550610c07600760008673ffffffffffffffffffffffffffffffffffffffff1673ffffffffffffffffffffffffffffffffffffffff16815260200190815260200160002060003373ffffffffffffffffffffffffffffffffffffffff1673ffffffffffffffffffffffffffffffffffffffff1681526020019081526020016000205483611047565b600760008673ffffffffffffffffffffffffffffffffffffffff1673ffffffffffffffffffffffffffffffffffffffff16815260200190815260200160002060003373ffffffffffffffffffffffffffffffffffffffff1673ffffffffffffffffffffffffffffffffffffffff16815260200190815260200160002081905550610cd0600660008573ffffffffffffffffffffffffffffffffffffffff1673ffffffffffffffffffffffffffffffffffffffff16815260200190815260200160002054836116a1565b600660008573ffffffffffffffffffffffffffffffffffffffff1673ffffffffffffffffffffffffffffffffffffffff168152602001908152602001600020819055508273ffffffffffffffffffffffffffffffffffffffff168473ffffffffffffffffffffffffffffffffffffffff167fddf252ad1be2c89b69c2b068fc378daa952ba7f163c4a11628f55a4df523b3ef846040518082815260200191505060405180910390a3600190509392505050565b600460009054906101000a900460ff1681565b60055481565b6000600660008373ffffffffffffffffffffffffffffffffffffffff1673ffffffffffffffffffffffffffffffffffffffff168152602001908152602001600020549050919050565b600160009054906101000a900473ffffffffffffffffffffffffffffffffffffffff1673ffffffffffffffffffffffffffffffffffffffff163373ffffffffffffffffffffffffffffffffffffffff16141515610e4157600080fd5b600160009054906101000a900473ffffffffffffffffffffffffffffffffffffffff1673ffffffffffffffffffffffffffffffffffffffff166000809054906101000a900473ffffffffffffffffffffffffffffffffffffffff1673ffffffffffffffffffffffffffffffffffffffff167f8be0079c531659141344cd1fd0a4f28419497f9722a3daafe3b4186f6b6457e060405160405180910390a3600160009054906101000a900473ffffffffffffffffffffffffffffffffffffffff166000806101000a81548173ffffffffffffffffffffffffffffffffffffffff021916908373ffffffffffffffffffffffffffffffffffffffff1602179055506000600160006101000a81548173ffffffffffffffffffffffffffffffffffffffff021916908373ffffffffffffffffffffffffffffffffffffffff160217905550565b6000809054906101000a900473ffffffffffffffffffffffffffffffffffffffff1681565b60028054600181600116156101000203166002900480601f01602080910402602001604051908101604052809291908181526020018280546001816001161561010002031660029004801561103f5780601f106110145761010080835404028352916020019161103f565b820191906000526020600020905b81548152906001019060200180831161102257829003601f168201915b505050505081565b600082821115151561105857600080fd5b818303905092915050565b60006110ae600660003373ffffffffffffffffffffffffffffffffffffffff1673ffffffffffffffffffffffffffffffffffffffff1681526020019081526020016000205483611047565b600660003373ffffffffffffffffffffffffffffffffffffffff1673ffffffffffffffffffffffffffffffffffffffff1681526020019081526020016000208190555061113a600660008573ffffffffffffffffffffffffffffffffffffffff1673ffffffffffffffffffffffffffffffffffffffff16815260200190815260200160002054836116a1565b600660008573ffffffffffffffffffffffffffffffffffffffff1673ffffffffffffffffffffffffffffffffffffffff168152602001908152602001600020819055508273ffffffffffffffffffffffffffffffffffffffff163373ffffffffffffffffffffffffffffffffffffffff167fddf252ad1be2c89b69c2b068fc378daa952ba7f163c4a11628f55a4df523b3ef846040518082815260200191505060405180910390a36001905092915050565b600080821115156111fc57600080fd5b818381151561120757fe5b04905092915050565b600082600760003373ffffffffffffffffffffffffffffffffffffffff1673ffffffffffffffffffffffffffffffffffffffff16815260200190815260200160002060008673ffffffffffffffffffffffffffffffffffffffff1673ffffffffffffffffffffffffffffffffffffffff168152602001908152602001600020819055508373ffffffffffffffffffffffffffffffffffffffff163373ffffffffffffffffffffffffffffffffffffffff167f8c5be1e5ebec7d5bd14f71427d1e84f3dd0314c0f7b2291e5b200ac8c7c3b925856040518082815260200191505060405180910390a38373ffffffffffffffffffffffffffffffffffffffff16638f4ffcb1338530866040518563ffffffff167c0100000000000000000000000000000000000000000000000000000000028152600401808573ffffffffffffffffffffffffffffffffffffffff1673ffffffffffffffffffffffffffffffffffffffff1681526020018481526020018373ffffffffffffffffffffffffffffffffffffffff1673ffffffffffffffffffffffffffffffffffffffff16815260200180602001828103825283818151815260200191508051906020019080838360005b838110156113ed5780820151818401526020810190506113d2565b50505050905090810190601f16801561141a5780820380516001836020036101000a031916815260200191505b5095505050505050600060405180830381600087803b15801561143c57600080fd5b505af1158015611450573d6000803e3d6000fd5b50505050600190509392505050565b60008183029050600083148061147f575081838281151561147c57fe5b04145b151561148a57600080fd5b92915050565b600160009054906101000a900473ffffffffffffffffffffffffffffffffffffffff1681565b60008060009054906101000a900473ffffffffffffffffffffffffffffffffffffffff1673ffffffffffffffffffffffffffffffffffffffff163373ffffffffffffffffffffffffffffffffffffffff1614151561151357600080fd5b8273ffffffffffffffffffffffffffffffffffffffff1663a9059cbb6000809054906101000a900473ffffffffffffffffffffffffffffffffffffffff16846040518363ffffffff167c0100000000000000000000000000000000000000000000000000000000028152600401808373ffffffffffffffffffffffffffffffffffffffff1673ffffffffffffffffffffffffffffffffffffffff16815260200182815260200192505050602060405180830381600087803b1580156115d757600080fd5b505af11580156115eb573d6000803e3d6000fd5b505050506040513d602081101561160157600080fd5b8101908080519060200190929190505050905092915050565b6000600760008473ffffffffffffffffffffffffffffffffffffffff1673ffffffffffffffffffffffffffffffffffffffff16815260200190815260200160002060008373ffffffffffffffffffffffffffffffffffffffff1673ffffffffffffffffffffffffffffffffffffffff16815260200190815260200160002054905092915050565b600081830190508281101515156116b757600080fd5b92915050565b6000809054906101000a900473ffffffffffffffffffffffffffffffffffffffff1673ffffffffffffffffffffffffffffffffffffffff163373ffffffffffffffffffffffffffffffffffffffff1614151561171857600080fd5b80600160006101000a81548173ffffffffffffffffffffffffffffffffffffffff021916908373ffffffffffffffffffffffffffffffffffffffff1602179055505056fea165627a7a7230582010bb375f5e43e291dda6b90a5e37e117069a61ad6ee0c90be2874780abbc07850029a165627a7a72305820d416527cb377da09348340f2774e6a14db75d01e7bd2725048d2e0e15baa722f0029",
  "source": "pragma solidity ^0.5.0;\n\ncontract MasterPOC {\n\n\taddress owner;\n\n  event AssignmentExecuted (\n    address assignor,\n    address assignee,\n    uint priceInEth,\n    uint numTransferred\n  );\n\n  // @notice ERC20 address -> user address -> # tokens owned\n  // currently unused, but would be nice for tracking  \n  mapping (address => mapping(address => uint)) public tokensByOwner;\n\n  address[] public contracts;\n  address public lastContractAddress;\n  \n  event newProofClaimContract (\n      address contractAddress\n  );\n\n  constructor()\n      public\n  {\n\t\towner = msg.sender;\n  }\n\n  function getContractCount()\n      public\n      view\n      returns(uint contractCount)\n  {\n    return contracts.length;\n  }\n\n  function newProofClaim(string memory symbol, string memory name)\n      public\n      returns(address newContract)\n  {\n    uint supply = 100000000000000000000;\n    ProofClaim c = new ProofClaim(symbol, name, owner, supply);\n    contracts.push(address(c));\n    lastContractAddress = address(c);\n\n    tokensByOwner[address(c)][owner] = supply;\n    emit newProofClaimContract(address(c));\n    return address(c);\n  }\n\n  function seeProofClaim(uint pos)\n      public\n      view\n      returns(address contractAddress)\n  {\n    return address(contracts[pos]);\n  }\n}\n\ncontract SafeMath {\nfunction safeAdd(uint a, uint b) public pure returns (uint c) {\n    c = a + b;\n    require(c >= a);\n}\nfunction safeSub(uint a, uint b) public pure returns (uint c) {\n    require(b <= a);\n    c = a - b;\n}\nfunction safeMul(uint a, uint b) public pure returns (uint c) {\n    c = a * b;\n    require(a == 0 || c / a == b);\n}\nfunction safeDiv(uint a, uint b) public pure returns (uint c) {\n    require(b > 0);\n    c = a / b;\n}\n}\n\ncontract ERC20Interface {\n\tfunction totalSupply() public view returns (uint);\n\tfunction balanceOf(address tokenOwner) public view returns (uint balance);\n\tfunction allowance(address tokenOwner, address spender) public view returns (uint remaining);\n\tfunction transfer(address to, uint tokens) public returns (bool success);\n\tfunction approve(address spender, uint tokens) public returns (bool success);\n\tfunction transferFrom(address from, address to, uint tokens) public returns (bool success);\n\n\tevent Transfer(address indexed from, address indexed to, uint tokens);\n\tevent Approval(address indexed tokenOwner, address indexed spender, uint tokens);\n}\n\ncontract ApproveAndCallFallBack {\n\tfunction receiveApproval(address from, uint256 tokens, address token, bytes memory data) public;\n}\n\ncontract Owned {\n\taddress public owner;\n\taddress public newOwner;\n\n\tevent OwnershipTransferred(address indexed _from, address indexed _to);\n\n\tconstructor() public {\n    \towner = msg.sender;\n\t}\n\n\tmodifier onlyOwner {\n    \trequire(msg.sender == owner);\n    \t_;\n\t}\n\n\tfunction transferOwnership(address _newOwner) public onlyOwner {\n    \tnewOwner = _newOwner;\n\t}\n\tfunction acceptOwnership() public {\n    \trequire(msg.sender == newOwner);\n    \temit OwnershipTransferred(owner, newOwner);\n    \towner = newOwner;\n    \tnewOwner = address(0);\n\t}\n}\n\ncontract ProofClaim is ERC20Interface, Owned, SafeMath {\n\tstring public symbol;\n\tstring public  name;\n\tuint8 public decimals;\n\tuint public _totalSupply;\n\n\tmapping(address => uint) balances;\n\tmapping(address => mapping(address => uint)) allowed;\n    \nconstructor(string memory _symbol, string memory _name, address _owner, uint _supply) public {\n    \tsymbol = _symbol;\n    \tname = _name;\n    \tdecimals = 18;\n    \t_totalSupply = _supply;\n    \tbalances[_owner] = _totalSupply;\n    \temit Transfer(address(0), _owner, _totalSupply);\n}\n\n\nfunction totalSupply() public view returns (uint) {\n    \treturn _totalSupply  - balances[address(0)];\n}\n\nfunction balanceOf(address tokenOwner) public view returns (uint balance) {\n    \treturn balances[tokenOwner];\n}\n\nfunction transfer(address to, uint tokens) public returns (bool success) {\n    \tbalances[msg.sender] = safeSub(balances[msg.sender], tokens);\n    \tbalances[to] = safeAdd(balances[to], tokens);\n    \temit Transfer(msg.sender, to, tokens);\n    \treturn true;\n}\n\nfunction approve(address spender, uint tokens) public returns (bool success) {\n    \tallowed[msg.sender][spender] = tokens;\n    \temit Approval(msg.sender, spender, tokens);\n    \treturn true;\n}\n\nfunction transferFrom(address from, address to, uint tokens) public returns (bool success) {\n    \tbalances[from] = safeSub(balances[from], tokens);\n    \tallowed[from][msg.sender] = safeSub(allowed[from][msg.sender], tokens);\n    \tbalances[to] = safeAdd(balances[to], tokens);\n    \temit Transfer(from, to, tokens);\n    \treturn true;\n}\n\nfunction allowance(address tokenOwner, address spender) public view returns (uint remaining) {\n    \treturn allowed[tokenOwner][spender];\n}\n\nfunction approveAndCall(address spender, uint tokens, bytes memory data) public returns (bool success) {\n    \tallowed[msg.sender][spender] = tokens;\n    \temit Approval(msg.sender, spender, tokens);\n    \tApproveAndCallFallBack(spender).receiveApproval(msg.sender, tokens, address(this), data);\n    \treturn true;\n}\n\nfunction () external payable {\n    \trevert();\n}\n\nfunction transferAnyERC20Token(address tokenAddress, uint tokens) public onlyOwner returns (bool success) {\n    \treturn ERC20Interface(tokenAddress).transfer(owner, tokens);\n\t}\n}",
  "sourcePath": "/home/josh/dev/income-share/contracts/MasterPOC.sol",
  "compiler": {
    "name": "solc",
    "version": "0.5.0+commit.1d4f565a.Emscripten.clang"
  },
  "schemaVersion": "3.0.0",
  "updatedAt": "2019-04-19T04:46:51.027Z",
  "devdoc": {
    "methods": {}
  },
  "userdoc": {
    "methods": {}
  }
}