{
  "contractName": "ProofClaim",
  "abi": [
    {
      "constant": true,
      "inputs": [
        {
          "name": "tokenOwner",
          "type": "address"
        }
      ],
      "name": "balanceOf",
      "outputs": [
        {
          "name": "balance",
          "type": "uint256"
        }
      ],
      "payable": false,
      "stateMutability": "view",
      "type": "function",
      "signature": "0x70a08231"
    },
    {
      "constant": false,
      "inputs": [
        {
          "name": "to",
          "type": "address"
        },
        {
          "name": "tokens",
          "type": "uint256"
        }
      ],
      "name": "transfer",
      "outputs": [
        {
          "name": "success",
          "type": "bool"
        }
      ],
      "payable": false,
      "stateMutability": "nonpayable",
      "type": "function",
      "signature": "0xa9059cbb"
    }
  ],
  "bytecode": "0x608060405234801561001057600080fd5b50610164806100206000396000f3fe60806040526004361061004c576000357c0100000000000000000000000000000000000000000000000000000000900463ffffffff16806370a0823114610051578063a9059cbb146100b6575b600080fd5b34801561005d57600080fd5b506100a06004803603602081101561007457600080fd5b81019080803573ffffffffffffffffffffffffffffffffffffffff169060200190929190505050610129565b6040518082815260200191505060405180910390f35b3480156100c257600080fd5b5061010f600480360360408110156100d957600080fd5b81019080803573ffffffffffffffffffffffffffffffffffffffff16906020019092919080359060200190929190505050610130565b604051808215151515815260200191505060405180910390f35b6000919050565b60009291505056fea165627a7a72305820a9eeb0d92d827b341607c911c103301d311f04977e65bcc4bb5375bc00c36b480029",
  "source": "pragma solidity ^0.5.0;\n\ncontract IncomeAssignment {\n\n  ProofClaim pcToken;\n\n  // @notice Assignment defines details of an assignment\n  struct Assignment {\n    address assignor;\n    address assignee;\n    uint priceInEth;\n    uint numTransferred;\n    bool confirmed;\n  }\n\n  address owner;\n\n  // @notice ERC20 address -> Assignment number -> Assignment\n  mapping (address => mapping(uint => Assignment)) public assignmentHistory;\n\n  // @notice ERC20 address -> Assignment index (defaults to 0)\n  mapping (address => uint) public currAssignment; \n\n  constructor(address _pcTokenAddr) public {\n    owner = msg.sender;\n    pcToken = ProofClaim(_pcTokenAddr);\n  }\n  \n  modifier onlyOwner(address _owner) {\n    require (msg.sender == _owner);\n    _;\n  }\n\n  function recordAssignment(\n    address _contract, \n    address _assignor, \n    address _assignee, \n    uint _priceInEth, \n    uint _numTransferred) public onlyOwner (msg.sender) {\n    Assignment memory _assignment = Assignment({\n      assignor: _assignor,\n      assignee: _assignee,\n      priceInEth: _priceInEth,\n      numTransferred: _numTransferred,\n      confirmed: false\n    });\n    \n    assignmentHistory[_contract][currAssignment[_contract]++] = _assignment;\n  }\n\n  function () external payable { }\n\n  function executeAssignment(address _contract, uint _assignmentNum) public {\n\n    uint assignorTokens = pcToken.balanceOf(msg.sender);\n    Assignment memory _assignment = assignmentHistory[_contract][_assignmentNum];\n    require (msg.sender == _assignment.assignor, \"only assignor can confirm\");\n    require (assignorTokens >= _assignment.numTransferred, \"assignor does not have enough tokens to assign\");\n    require(pcToken.transfer(_assignment.assignee, _assignment.numTransferred), \"transfer unsuccessful\");\n    _assignment.confirmed = true;   \n\n    // Save the record of the assignment\n    assignmentHistory[_contract][_assignmentNum] = _assignment; \n  }\n\n  function getNumAssignments(address _addr) public returns (uint) {\n    return currAssignment[_addr];\n  }\n}\n\ncontract ProofClaim {\n  \n  function balanceOf(address tokenOwner) public view returns (uint balance) {}\n    \t\n  function transfer(address to, uint tokens) public returns (bool success) {}\n}",
  "sourcePath": "/home/josh/dev/income-share/contracts/IncomeAssignment.sol",
  "compiler": {
    "name": "solc",
    "version": "0.5.0+commit.1d4f565a.Emscripten.clang"
  },
  "schemaVersion": "3.0.0",
  "updatedAt": "2019-04-19T04:46:51.018Z",
  "devdoc": {
    "methods": {}
  },
  "userdoc": {
    "methods": {}
  }
}